:020000040800F2
:10000000E8060020D50000085D2D0008AD28000896
:1000100000000000000000000000000000000000E0
:100020000000000000000000000000002D3000086B
:1000300000000000000000008D2E0008D9310008EB
:10004000E7000008E7000008E7000008E7000008F4
:10005000E7000008E7000008E7000008A50A00081C
:1000600000000000E7000008E7000008E7000008C3
:10007000E7000008E7000008E7000008E7000008C4
:10008000E7000008E1320008E70000080000000077
:10009000E7000008E7000008E7000008E7000008A4
:1000A000E7000008E7000008E7000008E700000894
:1000B000E7000008E7000008000000000000000062
:1000C0000348854600F0C0FA00480047D5460008BE
:1000D000E80600200448804704480047FEE7FEE7A2
:1000E000FEE7FEE7FEE7FEE779320008C100000800
:1000F00030B50B46014600202022012409E00D46C0
:10010000D5409D4205D31D469540491B2546954047
:1001100040191546521E002DF1DC30BD70B500248B
:100120002546002801DA01244042002901DA012590
:100130004942FFF7DDFFAC4200D04042002C00D026
:10014000494270BDF0B51FB40646002082B0054696
:100150004024019100901BE0019922460F46304651
:1001600000F0EEF9049A059B801A994110D31046CD
:100170001946224600F0D4F9361A8F4101972246DB
:1001800001200021009F00F0CBF938184D4100906C
:100190002046641E0028DFDC019B00982946324679
:1001A00007B0F0BDF0B507460846584087B0C00F0D
:1001B000049048000E46590040084908BC1A88417E
:1001C00005D2384631461E4617460B4602465800B1
:1001D000400810434CD0300D039040055900400DAD
:1001E000490D0590401A0290402872DA1803012147
:1001F000000B09050843019004980092002805D0DF
:1002000001995242002088410092019002984021B9
:100210000A1A0199009800F083F905460C466B46CE
:1002200007CB00F09EF9C0197141039A0E0D00230F
:10023000D71756401A467A40164344D0049A002AEB
:100240002DD0029A012A039A15DC1205C01A914199
:1002500001263605001C7141D20F059ED20700937E
:10026000019202962A46234600F09BF907B0F0BDA2
:1002700038463146FAE71605224A0F46B218C01A28
:10028000B74101210905001C4F4100187F4111466B
:1002900018187941E20F10436D19644113E0E20729
:1002A0006D0815436408C2071443039A012612051A
:1002B000C01A91413605001C7141CE0740083043F9
:1002C0004908C01851412A46234600F05DF9CDE7A0
:1002D000FFE7049801224000C117121A00238B4146
:1002E00004983146C417381AA141EEE730B401240E
:1002F000E407634030BC55E730B40124E4076140B3
:1003000030BC4FE70000E0FFF0B51FB488B00B9998
:100310000998002448400999C00F490049080991EB
:10032000C0070B990090490049080B91099908985A
:10033000A64608431CD00B990A98084318D0099880
:1003400001244000420D4800410D09982405000396
:10035000000B204309900B980003000B20430B90E7
:1003600050181C494018002201901446104605E020
:10037000002001460DB0F0BD032801DA034600E07D
:1003800003239C46C11A0AAE0AE05F0008ADED5B8C
:100390004F00F75B7D430027AA187C41491C5B1E78
:1003A0006145F2DD410004AB5A522104120C0A43AC
:1003B000240C401C0828DFDB01980290009970464D
:1003C00001910090059B049A0799069800F0E9F8BE
:1003D000D0E700000DFCFFFFF0B50C465C4085B097
:1003E000E40FE40703944C00002664085900944687
:1003F000490802460296224321D062460A431ED093
:100400006200570D4A000E032303550D01240246D6
:100410002C492405781B1B0B360B4018234326431D
:10042000614600901C46501AB44103D30098401C0A
:10043000009002E0921800985B41002803DA002047
:10044000014605B0F0BD002001210905074686469A
:1004500011E064461D46141BB54106D36546521B88
:10046000B341744607430C43A646CD0740084908EC
:10047000284392185B4105460D43EAD110461843C4
:1004800013D06046194650407140084306D060467C
:10049000101AB34106D20122002306E000220123F4
:1004A000DB0702E00122D243531000987446010595
:1004B000381C6141029C039D0019694100F064F8F9
:1004C000BFE70000FD0300000EB5054A02920022BE
:1004D00000921346019200F064F803B000BD0000E2
:1004E000330400004A0009030123090B1B051943CB
:1004F000094B10B5520D9A4201DA002010BD064B8F
:1005000034339A4203DC9A1A00F01AF810BD0349FA
:100510005118884010BD0000FF030000CDFBFFFF15
:1005200010B5202A04DB0146203A9140002010BD7E
:10053000914020239C1A0346E3401943904010BD8C
:1005400010B5202A04DB0846203AD040002110BD17
:100550000B46D340D0402024A21A914008431946AC
:1005600010BD10B5202A06DBCB170846203A1041F3
:10057000C1170B4306E00B461341D0402024A21ABA
:1005800091400843194610BD10B5002B08DA00242D
:10059000401C614192185B411A4301D14008400060
:1005A00010BDF0B51FB482B005460C0003D008465C
:1005B00003F0DEFF02E003F0DBFF20300246009094
:1005C00021462846FFF7ACFF049B059A04460F46D8
:1005D00018431143084314D0184610431BD0009809
:1005E00040210A1A18460599FFF7AAFF05460E464C
:1005F000009A05990498FFF793FF084305D001205E
:1006000004E02046394607B0F0BD0020C11705437D
:100610000E432C43374300990E986305401A790521
:10062000E40A00220C43FD0A0A3002D500200146EC
:10063000E9E70105101969410C9C0D9D00196941FC
:10064000FFF7A2FFDFE70000064C0125064E05E09C
:10065000E36807CC2B430C3C98471034B442F7D3E3
:10066000FFF732FD7C4700089C47000870B5044640
:10067000002520688068042108408008002829D0CF
:1006800020688068084000280BD02068806802211C
:100690000840002805D1206880681021084321689F
:1006A000886000F05BFF05460EE000F057FF401B3E
:1006B0000A2809D9A06D10210843A065E06D012129
:1006C0000843E065012070BD20688068042108406F
:1006D0000028EAD10020F6E738B504460749084863
:1006E0000068FFF705FD6043009002E00098401E9F
:1006F000009000980028F9D138BD000040420F005A
:100700000000002070B5044600252068806880073E
:10071000800F012807D120680068C007C00F00289B
:1007200001D0012000E00020002837D02068806838
:1007300005210840012800D100E0002000280AD04F
:1007400000BF206880680221084321688860032078
:100750002168086009E0A06D10210843A065E06DE4
:1007600001210843E065012070BD00F0F7FE054659
:100770000EE000F0F3FE401B0A2809D9A06D1021FD
:100780000843A065E06D01210843E0650120EBE727
:1007900020688068C007C00F0028EAD10020E3E786
:1007A00070B504460025206880688007800F012806
:1007B00007D120680068C007C00F002801D00120C1
:1007C00000E00020002839D1206880681C490840DA
:1007D000002801D1012000E00020002809D1A06DEF
:1007E00010210843A065E06D01210843E065012068
:1007F00070BD20688068012108432168886001205D
:10080000FFF76AFF00F0AAFE05460EE000F0A6FE24
:10081000401B0A2809D9A06D10210843A065E06D8E
:1008200001210843E0650120E2E720680068C00775
:10083000C00F0121484048400028E7D00020D7E7FA
:10084000170000801CB52B482B4908600120486028
:100850001821294881606021C160002101610321C4
:10086000890741610021C164012181640021416443
:1008700081610121C1610162002141628162C16225
:1008800041630421C1630021816300F057FB00280C
:1008900001D000201CBD012000900003019069469A
:1008A000154800F0C3FA002801D00020F2E71348F1
:1008B000806801214906084310498860084680681D
:1008C0000121C90508430D49886008468068012157
:1008D0008905084309498860074800F0D9FC0028C9
:1008E00001D00020D6E70021034800F043FA0120A0
:1008F000D0E700000024014018010020002701403B
:10090000F7B582B004460D46032D02DD002005B088
:10091000F0BD2801C030C0B201906946019808704E
:10092000E320487002236A4601219020A768B84757
:100930000646002E00D1EAE7022003F061FE022302
:100940006A46002190206768B847064669460878DD
:10095000000249780843049908803046D7E704200C
:10096000052109078862704704200521090788616D
:100970007047000038B50446002168460170417098
:1009800002236A4606214020A568A847002800D116
:1009900038BD002002490880204600F0F7F8F7E74C
:1009A00048000020F8B5054600240026032D01DD8F
:1009B000FF20F8BD284602F04FF9052003F020FE85
:1009C0006A4601212F48FFF79BFF684600880321F4
:1009D000C9024843C40B0A21614308460A21FFF7B4
:1009E00087FB0446E32C01D20020E2E7FF20A2307F
:1009F000844201D201262CE02348844201D20226FF
:100A000027E021488930844201D2032621E01F4893
:100A1000844201D204261CE01C486930844201D281
:100A2000052616E01948C430844201D2062610E09B
:100A30001748844201D207260BE01648844201D2AF
:100A4000082606E012488B30844201D2092600E0D5
:100A50000A26032D02D1104846430EE0022D02D192
:100A60000E48464309E0012D02D10D48464304E0FB
:100A7000002D02D17D20C000464330460A21484364
:100A800097E700003400002041020000410300000D
:100A9000570400003207000040420F00A08601000A
:100AA0001027000010B500F001F810BD10480069D3
:100AB00001214903084000280CD108460D4948612E
:100AC0000D480078022108430B49087001200B49AA
:100AD00008700CE001204003064948610648007890
:100AE0000421084304490870002004490870704735
:100AF00000080050000401402400002025000020D0
:100B0000704770B506460C462F2C07DD002002F01A
:100B100013FE062002F014FD002070BD2546E117EB
:100B2000490F4919C910C900611AC8B202F004FE80
:100B3000E117490F49194905080E02F001FD304639
:100B400000F024F8E9E770B506460C462F2C07DDC7
:100B5000002002F09FFE062002F070FD002070BD14
:100B60002546E117490F4919C910C900611AC8B2D1
:100B700002F090FEE117490F49194905080E02F0ED
:100B80005DFD304600F002F8E9E7000038B50446A4
:100B90000748008801126846417005480178684698
:100BA000017002236A4619464020A568A84738BD4F
:100BB0004800002000B587B000BF5648C06A042135
:100BC00008435449C8620846C06A0421084001909D
:100BD00000BF00BF00BF4F48C06A802108434D4995
:100BE000C8620846C06A80210840019000BF00BF6B
:100BF00000BF4848C06A012108434649C862084608
:100C0000C06AC007C00F019000BF00BF00BF084608
:100C1000C06A022108433F49C8620846C06A0221EF
:100C20000840019000BF00BF00BF3A48C06A0821D9
:100C300008433849C8620846C06A08210840019044
:100C400000BF00BF344802900120039000200490B0
:100C5000059002A9314800F07FFB8120029000201E
:100C60000390049002A92D4800F076FB2C480290D6
:100C70000120039000200490059002A905200007A0
:100C800000F06AFB274802900120039000200490A6
:100C9000059002A9244800F05FFB01208003029028
:100CA00000200390049002A91F4800F055FB042087
:100CB00002900120039000200490059002A91B4897
:100CC00000F04AFB00221449144800F041FC0022C5
:100CD0002C210520000700F03BFC0122D102052059
:100CE000000700F035FC002211490F4800F030FCED
:100CF0000122132109020C4800F02AFC00220421E1
:100D00000A4800F025FC01220821044800F020FCDC
:100D100007B000BD001002404E1F00000008005048
:100D20002C080000FFB3000000040050000C00502D
:100D3000FFA0000070B504460C4884620C4800F027
:100D4000A7FA002801D0002070BD3221084800F029
:100D50002DFA002801D00020F6E7054800F0EAF857
:100D600085B2034800F0D0FA2846EDE700240140A0
:100D700018010020F8B504460F460025002600BFE4
:100D80005420005D012801D10220F8BD012154202A
:100D9000015500BF206880688007800F012806D1B8
:100DA000206800680840002801D0012000E00020F1
:100DB00000282FD1A06DFF21013188430221084373
:100DC000A06520688068890708432168886000F072
:100DD000C5FB064611E000F0C1FB801B0A280CD9B8
:100DE000A06D0221884310210843A06500BF0021A7
:100DF0005420015500BF0120C7E720688068C00F5C
:100E0000C0070028E7D1A06D0221884301210843D3
:100E1000A06504E0A06D20210843A065012500BF66
:100E200000215420015500BF2846AEE770B50446A6
:100E30000D4600BF5420005D012801D1022070BD85
:100E400001215420015500BF20688068042108401A
:100E5000800800280AD0A06D20210843A06500BFAB
:100E600000215420015500BF0120E8E72D496868A2
:100E7000884229D02068806A29684903490B0843C1
:100E80002168886228684003400B274908400121F7
:100E90008904884208D125488068490108432349CC
:100EA00088600A20FFF718FC28684003400B20499F
:100EB00008400121490488422CD11C48806849011E
:100EC00008431A49886025E02068806A2968490338
:100ED000490B88432168886228684003400B124907
:100EE000084001218904884205D1104880684901E1
:100EF00088430E49886028684003400B0C4908402D
:100F000001214904884205D1084880684901884385
:100F10000649886000BF00215420015500BF002011
:100F20008DE7000001100000000004480027014088
:100F30000000024401460868006C704710B5044682
:100F4000002C01D1012010BDA06D002806D1E06564
:100F5000002154200155204600F00AF9A06D10210F
:100F60000840002806D120688068042108408008D5
:100F700000280AD0A06D10210843A06500BF002101
:100F80005420015500BF0120DDE7A06DFF21013194
:100F9000884302210843A065206880688007800F8D
:100FA000012807D120680068C007C00F002801D0C1
:100FB000012000E0002000283AD100BF032189076A
:100FC0006069884207D049426069884203D049007D
:100FD000606988420CD1206800698000800821681F
:100FE000086120680069616908432168086112E0AE
:100FF000206800698000800821680861594880687D
:101000000F218904884357498860084680686169D0
:1010100008435449886000BF2068C068182188438D
:101020002168C8602068C068A16908432168C86059
:101030004C4880680121490688434A49886008462F
:101040008068A16C4906084346498860206880682A
:10105000012109070840002804D12068806808435E
:10106000216888602068C0683F4908402168C860DE
:10107000216A606A022901D1042100E000210843AD
:10108000A16A49030843A16B49000843216C084346
:10109000616C89030843E16CC90308432168C9688E
:1010A00008432168C860FF21C231206B884207D005
:1010B000616B206B08432168C96808432168C860D8
:1010C000E06A012812D1A06A002807D12068C06810
:1010D0000121090408432168C86007E0A06D2021B0
:1010E0000843A065E06D01210843E06560680128C0
:1010F00016D1206800691D49084021680861A1686F
:10110000E0680843216908432168096908432168A8
:1011100008612068006901210843216808610BE02B
:1011200020680069C007C00F002805D0206800694A
:10113000400840002168086120684069C008C0007C
:101140002168486120684069E16908432168486175
:101150000020E065A06D0221884301210843A065BD
:101160000020F0E6002701401902FEFF03FCFF7F8C
:1011700010B586B004460B492068884210D10A4851
:10118000406B491508430849486313200190032028
:1011900002900020039001A90520000700F0DCF870
:1011A00006B010BD0024014000100240F8B504460E
:1011B0000D46E06B082801D1082711E02068C068BF
:1011C000C007C00F00280AD0A06D20210843A065E9
:1011D00000BF00215420015500BF0120F8BD0C279D
:1011E00000F0BCF9064614E0681C002811D0002D60
:1011F00004D000F0B3F9801BA8420AD9A06D0421E5
:101200000843A06500BF00215420015500BF032002
:10121000E4E72068006838400028E5D0A06D01218F
:1012200049020843A0652068C0680321890208407C
:10123000002825D1A06A002822D120680068082152
:10124000084008281CD120688068042108408008D4
:1012500000280DD1206840680C218843216848602F
:10126000A06DFF210131884301210843A06507E0FB
:10127000A06D20210843A065E06D01210843E065D1
:10128000606C002802D10C20216808600020A5E7CE
:1012900070B5044600252068806804210840800855
:1012A00000282BD100BF5420005D012801D102206D
:1012B00070BD01215420015500BFE06C012803D00E
:1012C0002046FFF76DFA0546002D18D1A06D0D4997
:1012D0000840FF2101310843A0650020E06500BF00
:1012E00000215420015500BF1C202168086020689F
:1012F0008068042108432168886000E002252846B0
:10130000D6E70000FEF1FFFF70B50446002500BFE0
:101310005420005D012801D1022070BD012154201C
:10132000015500BF2046FFF7A1F90546002D0CD15D
:101330002046FFF7E7F90546002D06D1A06DFF21F5
:101340000131884301210843A06500BF00215420DA
:10135000015500BF2846E0E770B50346002200248F
:101360000020DFE0012696400D6835402C46002C19
:1013700077D04D68022D02D04D68122D15D1D508B9
:10138000AE001D462035A8595507EE0E0F25B54075
:101390000646AE4330465607F60E0D69B540284363
:1013A000D508AD001E46203670514D68012D08D07D
:1013B0004D68022D05D04D68112D02D04D68122DBB
:1013C00018D1986856000325B5400646AE4330460E
:1013D0005600CD68B540284398605868012595406F
:1013E0000646AE43304610264D6835402D099540DF
:1013F00028435860186856000325B5400646AE439A
:1014000030460D79AD07AD0F5600B5402843186042
:10141000D86856000325B5400646AE433046560010
:101420008D68B5402843D860012636074D683540A1
:10143000B54276D13E4D6D6B012635433C4E75630A
:101440003C4D9608B600A85995072E0F0F25B540BC
:101450000646AE43304605252D07AB4202D1002596
:101460001AE05EE0344DAB4201D1012514E0334D6A
:10147000AB4201D102250FE0314DAB4201D1032532
:101480000AE0304DAB4201D1042505E02E4DAB42C0
:1014900001D1052500E006259607360FB540284303
:1014A000244D9608B600A851284D28680546A54346
:1014B0002846012636044D683540B54202D105461E
:1014C00025432846214D286068680546A5432846DF
:1014D000012676044D683540B54202D105462543C4
:1014E00028461A4D6860A8680546A5432846012687
:1014F00036054D683540B54202D10546254328469C
:10150000124DA860E8680546A543284601267605E1
:101510004D683540B54202D10546254328460B4D5E
:10152000E860521C0D68D540002D00D01AE770BD50
:101530000010024008000140000400500008005064
:10154000000C005000100050001C0050000401402E
:10155000002A01D0816100E0816270470148006883
:10156000704700000400002002480068401C014948
:10157000086070470400002010B50648006840214C
:10158000084304490860002000F006F800F018F84D
:10159000002010BD0020024070B504467D21C90026
:1015A00006480068FEF7A4FD054600F0FFFD002296
:1015B0002146501E00F030F8002070BD00000020D1
:1015C00010B50E48406B012108430C49486308469A
:1015D000806B090408430949886300221146501FA3
:1015E00000F01AF800221146901E00F015F80022B3
:1015F0001146501E00F010F810BD0000001002400F
:1016000000BFC206D20E01219140024A116000BF04
:101610007047000000E100E070B504460D46164634
:101620002946204601F09CFB70BD000070B50446C1
:101630000025002620212068084020287ED18148EE
:10164000006803210905084003221205A169114021
:1016500088420DD01111A0690840884208D179480C
:101660000068012149040840002801D0012070BD14
:101670007448806B012109070843724988637248E6
:1016800000688915084370490860FFF767FF054641
:1016900006E0FFF763FF401B642801D90320E6E75B
:1016A00069480068FF21013108400028F1D06548F1
:1016B0004030006903210904084003221204A16993
:1016C000114088425CD05F48403000691146884331
:1016D00006465C48403000690121C9040843594965
:1016E00040310861084600690121C9048843554911
:1016F000403108610846066140153040002814D08A
:10170000FFF72CFF054607E0FFF728FF401B4F4976
:10171000884201D90320AAE74A48403000690121E4
:1017200049020840400A0028EED000BF0321090406
:10173000A069084088420DD1424800E020E00068DE
:101740000901884303221205A169114008433D495C
:10175000086006E03B4800680321090588433949D1
:101760000860384840300069032109048843032297
:101770001204A1691140084332494031086100BF99
:101780002078C007C00F002809D02E484030C0681C
:1017900080088000616808432A494031C8600221FE
:1017A00020680840022809D126484030C0680C2132
:1017B0008843A168084323494031C8600421206858
:1017C000084004280AD11F484030C068032189021C
:1017D0008843E16808431B494031C86008212068FC
:1017E000084008280AD117484030C068032109037F
:1017F00088432169084313494031C860FF21013102
:101800002068084088420AD10E484030C068032151
:1018100009048843616908430A494031C86080214E
:101820002068084080280AD106484030C06803215B
:1018300089048843E169084302494031C8600020B7
:1018400015E70000001002400070004088130000FF
:1018500070B504460D46002676480068C007C00FE4
:10186000A8420ED2734800684008400028437149DE
:10187000086008460068C007C00FA84201D00120D8
:1018800070BD022120680840022807D16A48C0685C
:10189000F0218843A16808436749C8602078C007E1
:1018A000C00F00284CD06068022809D16248006847
:1018B000012149040840400C002824D10120DFE721
:1018C0006068002809D15C4800680121490208408D
:1018D000400A002817D10120D2E76068032809D107
:1018E00055480068012149060840400E00280AD1E9
:1018F0000120C5E7504800680421084080080028FE
:1019000001D10120BCE74C48C068800880006168B4
:1019100008434949C860FFF721FE0646606802286F
:101920000FD107E0FFF71AFE801B4449884201D916
:101930000320A5E74048C0680C2108400828F1D1E1
:1019400034E0606803280FD107E0FFF707FE801B33
:101950003A49884201D9032092E73748C0680C21F0
:1019600008400C28F1D121E0606800280FD107E081
:10197000FFF7F4FD801B3149884201D903207FE73E
:101980002D48C0680C2108400028F1D10EE007E086
:10199000FFF7E4FD801B2949884201D903206FE746
:1019A0002548C0680C2108400428F1D1214800686E
:1019B000C007C00FA8420ED31E4800684008400070
:1019C00028431C49086008460068C007C00FA842A9
:1019D00001D0012054E7042120680840042808D1E0
:1019E0001548C068072109028843E1680843124985
:1019F000C860082120680840082809D10E48C0683E
:101A00000721C90288432169C90008430A49C860FF
:101A100000F044F80849C968F02211400909084A51
:101A2000515CC840074908600020FFF7B5FD002061
:101A300026E700000020024000100240881300004A
:101A40005847000800000020014800687047000067
:101A50000000002000B5FFF7F7FF0549C96807221D
:101A600012021140090A034A515CC84000BD00003F
:101A7000001002406847000800B5FFF7E5FF054980
:101A8000C9680722D2021140C90A034A515CC84002
:101A900000BD00000010024068470008F8B50024AF
:101AA00000260020009000270025324840680721CA
:101AB00049030840470B2F48C0680C210840002804
:101AC00006D0042809D0082811D00C2849D110E0EC
:101AD000781C01218140CD0348E026480068102190
:101AE0000840002801D0244D00E0244D3EE0234D65
:101AF0003CE02048C0680F218904084004461D4886
:101B0000C0680321890508400646A00C1C490C5CEE
:101B1000B00D461C1748C068012109040840009018
:101B20000098002815D113480068102108400028AB
:101B300007D01149614308463146FEF7D9FA0546F8
:101B40000EE00E49614308463146FEF7D1FA0546DC
:101B500006E00A49614308463146FEF7C9FA0546E0
:101B600004E0781C01218140CD0300BF00BF28465E
:101B7000F8BD00000010024000093D000024F40000
:101B800070470008F8B5044600252078C007C00F4C
:101B9000002870D0FB48C0680C21084008280BD0F2
:101BA000F848C06808400C2813D1F648C0680121E5
:101BB0000904084088420CD1F24800680121490418
:101BC0000840400C00286AD06068002867D10120D6
:101BD000F8BD00BF012109046068884205D1E948C9
:101BE00000680843E74908602EE0052109046068A1
:101BF000884215D1E3480068012109048843E1497E
:101C0000086008460068012189040843DD4908602E
:101C100008460068012109040843DA49086013E016
:101C2000D8480068012109048843D649086008465D
:101C30000068012109040840009000BFD1480068F5
:101C400089008843CF49086000BF6068002813D02E
:101C5000FFF784FC054606E0FFF780FC401B642884
:101C600001D90320B4E7C7480068012149040840AE
:101C7000400C0028F0D012E0FFF770FC054606E0AB
:101C8000FFF76CFC401B642801D90320A0E7BD4886
:101C90000068012149040840400C0028F0D10221CD
:101CA0002068084002286AD1B648C0680C21084064
:101CB00004280BD0B348C06808400C281DD1B14897
:101CC000C068012109040840002816D1AD48006809
:101CD000042108408008002804D0E068012801D0D1
:101CE000012075E7A74840681F2109028843216940
:101CF00009020843A349486041E0E068002824D075
:101D0000A048006809218843E16808439D490860AC
:101D1000FFF724FC054606E0FFF720FC401B0228E5
:101D200001D9032054E7974800680421084080083F
:101D30000028F1D0934840681F2109028843216997
:101D4000090208438F49486019E08E48006809215C
:101D50008843E16808438B490860FFF7FFFB0546AD
:101D600006E0FFF7FBFB401B022801D903202FE709
:101D7000844800680421084080080028F1D110211F
:101D80002068084010287ED17E48C0680C21084099
:101D900000282ED17B480068012149020840400AF2
:101DA000002804D0A069002801D1012010E775485F
:101DB0004068072149038843216A08437149486004
:101DC000084640680002000A217F090608436D4961
:101DD0004860FFF763FE6B49C968F02211400909AA
:101DE000694A515CC840694908600020FFF7D4FB8C
:101DF00049E0A06900282CD062480068FF21013129
:101E0000084360490860FFF7A9FB054606E0FFF7B5
:101E1000A5FB401B022801D90320D9E659480068D8
:101E2000012149020840400A0028F0D05548406886
:101E3000072149038843216A0843524948600846FC
:101E400040680002000A217F090608434D494860A6
:101E500019E04C480068FF21013188434949086076
:101E6000FFF77CFB054606E0FFF778FB401B0228E6
:101E700001D90320ACE6434800680121490208402B
:101E8000400A0028F0D1082120680840082839D1EC
:101E9000606900281BD03B4840300069012108439D
:101EA000384940310861FFF759FB054606E0FFF766
:101EB00055FB401B022801D9032089E631484030F8
:101EC00000690221084040080028F0D01AE02D489F
:101ED00040300069400840002A4940310861FFF75E
:101EE0003DFB054606E0FFF739FB401B022801D900
:101EF00003206DE623484030006902210840400875
:101F00000028F0D104212068084004287ED1002652
:101F100000271C48806B89060840002805D1194815
:101F2000806B084317498863012619480068FF2120
:101F300001310840002817D11548006808431449AA
:101F400008600127FFF70AFB054606E0FFF706FBDE
:101F5000401B642801D903203AE60D480068FF21A0
:101F6000013108400028F1D000BFFF210131A068F5
:101F700088420FD10348403000690843014940318D
:101F800008613EE0001002405847000800000020B1
:101F900000700040A06800280DD177480069FF213B
:101FA000013188437449086108460069091588436E
:101FB0007149086125E005210902A068884213D112
:101FC0006D480069FF21013188436B49086108466B
:101FD00000690915084368490861084600698915C0
:101FE0000843654908610CE063480069FF2101313D
:101FF00088436149086108460069091588435E49BC
:10200000086100BFA068002816D000E03BE0FFF7A1
:10201000A5FA054607E0FFF7A1FA401B5749884299
:1020200001D90320D4E55448006901214902084040
:10203000400A0028EFD013E0FFF790FA054607E0CA
:10204000FFF78CFA401B4D49884201D90320BFE5B8
:1020500049480069012149020840400A0028EFD19F
:10206000012F05D146480068390288434449086079
:10207000012E07D140484038806B310788433E49E4
:102080004039886300BF606A002872D03A484038FF
:10209000C0680C2108400C2869D0606A022848D129
:1020A00035484038006801210906884332494039E3
:1020B0000860FFF753FA054606E0FFF74FFA401BAA
:1020C000022801D9032083E52B484038006801210C
:1020D00049060840400E0028EFD1216BE06A084312
:1020E000A16A084324494039C968FD22120491437A
:1020F000084321494039C8600846006801210906A3
:1021000008431D4940390860FFF728FA054606E0F4
:10211000FFF724FA401B022801D9032058E516488E
:1021200040380068012149060840400E0028EFD0E1
:102130001FE01148403800680121090688430E4914
:1021400040390860FFF70AFA054606E0FFF706FA8D
:10215000401B022801D903203AE5074840380068AF
:10216000012149060840400E0028EFD101E001207E
:102170002EE500202CE500004010024088130000EE
:1021800000700040042806D1064909690422114361
:10219000044A116105E00349096904229143014A97
:1021A0001161704700E000E07047000070B5044620
:1021B0002546681E0949884201D901200CE0681EA5
:1021C000074948610321081F00F0CAFD00200449A7
:1021D000886107200861002070BD0000FFFFFF003C
:1021E00000E000E010B5FFF7DFFF10BD024600BFC2
:1021F0003420805C012801D1022070470123342063
:10220000835400BF02233520835410684068702334
:10221000984313685860106840680B681843136847
:10222000586010688068802398431368986010682D
:1022300080684B68184313689860012335208354E5
:1022400000BF00233420835400BF0020D5E710B521
:102250000446002C01D1012010BD3520005D00286E
:1022600005D1002134200155204600F00DF802214F
:1022700035200155211D206801F06CF80121352021
:1022800001550020E8E7000010B504460949206820
:1022900088420DD10848806B1021084306498863A5
:1022A000002211461120FFF7B7F91120FFF7A8F916
:1022B00010BD0000001000400010024001460868F8
:1022C000C068012210430A68D060086800680122D3
:1022D00010430A68106000207047704710B504462C
:1022E0002068006902210840400800281CD02068AE
:1022F000C06808404008002816D0481F21680861BF
:1023000001202075206880698007800F002803D095
:102310002046FFF7E2FF05E0204600F09DF820464A
:1023200000F04EF900202075206800690421084063
:10233000800800281DD02068C06808408008002858
:1023400017D0C84321680861022020752068806981
:10235000032109020840002803D02046FFF7BDFFF3
:1023600005E0204600F078F8204600F029F900202A
:1023700020752068006908210840C00800281CD08A
:102380002068C0680840C008002816D0C8432168EB
:102390000861042020752068C0698007800F00282C
:1023A00003D02046FFF799FF05E0204600F054F8DF
:1023B000204600F005F900202075206800691021F2
:1023C0000840000900281DD02068C06808400009A6
:1023D000002817D0C84321680861082020752068AC
:1023E000C069032109020840002803D02046FFF7F6
:1023F00074FF05E0204600F02FF8204600F0E0F8DA
:102400000020207520680069C007C00F01214840E6
:10241000484000280CD02068C06808404840484028
:10242000002805D0C81E21680861204600F0DAF8AF
:102430002068006940210840800900280BD02068EE
:10244000C06808408009002805D0C8432168086199
:10245000204600F003F910BD704770B504460D46E4
:10246000164600BF3420005D012801D1022070BD56
:1024700001213420015500BF022135200155002ED5
:1024800006D0042E1BD0082E33D00C2E62D147E08C
:102490002946206800F0AEFF2068806908210843C3
:1024A00021688861206880690421884321688861E7
:1024B00020688069E9680843216888614BE0294603
:1024C000206800F0B6FF206880690121C902084336
:1024D0002168886120688069012189028843216818
:1024E000886120688069E968090208432168886179
:1024F00031E02946206800F0C1FF2068C06908214A
:1025000008432168C8612068C069042188432168A4
:10251000C8612068C069E96808432168C8611AE099
:102520002946206800F0CCFF2068C0690121C9025B
:1025300008432168C8612068C06901218902884375
:102540002168C8612068C069E968090208432168F8
:10255000C86100E000BF00BF01213520015500BF68
:1025600000213420015500BF002080E710B504464B
:10257000002C01D1012010BD3520005D002805D1BF
:10258000002134200155204600F00CF802213520AE
:102590000155211D206800F0DDFE01213520015587
:1025A0000020E8E7012292070168914205D1034922
:1025B000896B01221143014A916370470010024068
:1025C000704770B504460D4601222946206800F088
:1025D00003FF20680068012108432168086000208B
:1025E00070BD000016490988491C154A118015491B
:1025F0000988491C134A118013490988491C124A49
:102600001180114609880A2904DB0021118001216B
:102610000E4A11700B490988642905DB0021094A1B
:10262000118001210A4A117005490988094A91421D
:1026300005DB0021024A11800121074A1170704711
:102640000C0000200E0000201000002008000020D8
:1026500009000020102700000A000020704710B574
:102660000446002C01D1012010BDA069002800D033
:1026700000E000BF6920005D002805D1002168202E
:102680000155204600F02AF82421692001552068D0
:1026900000684008400021680860204601F0D4FB33
:1026A000606A002802D0204601F024FB20684068C0
:1026B0000921C902884321684860206880682A216E
:1026C00088432168886020680068012108432168E8
:1026D0000860204601F086FBC6E7000010B586B012
:1026E00004461C492068884217D11B48406B0121D1
:1026F00089030843184948630320400201900220DF
:10270000029001200390032004900420059001A969
:1027100005200007FEF720FE19E0104920688842D6
:1027200015D10D48806B0121490408430A4988638B
:102730000C200190022002900120039003200490BD
:102740000420059001A905200007FEF705FE06B04C
:1027500010BD00000038014000100240004400405D
:10276000FFB581B004460D4616466920005D20285D
:1027700057D1002D01D0002E02D1012005B0F0BDAF
:1027800000BF6820005D012801D10220F6E7012189
:102790006820015500BF0020E06621216920015515
:1027A000502006535220065323E05220005B401E67
:1027B00081B252200153002280212046049B01F067
:1027C000ABFD002801D00320D8E701210903A06850
:1027D00088420AD12069002807D12F463888C005D1
:1027E000C00D21688862AD1C03E028786D1C21684B
:1027F00088625220005B0028D7D100224021204669
:10280000049B01F089FD002801D00320B6E72021B8
:102810006920015500BF00216820015500BF00203C
:10282000ACE70220AAE710B50446002C01D1012034
:1028300010BD607C002803D12074204600F026F8EB
:1028400000BF207C012801D10220F1E70120207483
:1028500000BF02206074A16860680843216849686D
:10286000490A490208432168486020680068C00995
:10287000C001E1680843216808600120607400BF5E
:102880000020207400BF00BFD2E70000054A0168A5
:10289000914205D10449896BD2141143024A9163D4
:1028A00070470000002C00400010024000BFFEE70F
:1028B000142001E0411EC8B20028FBD1704700007F
:1028C0001A480068012109040843184908600846AD
:1028D0000068090208431549086008468068C90174
:1028E00008431249886008468068490208430F4936
:1028F00088600846C0680321090488430B49C86002
:102900000846C0680321890488430849C86008460E
:102910004069FF2101310843044948610846406984
:1029200001214902084301494861704700040050F1
:1029300000B5024600F02AFB144800680321890410
:10294000884312490860002315E000F00FFBFFF7F1
:10295000AFFF10784006000E107000F01FFB00283B
:1029600003D0107801210843107000F0F7FAFFF748
:102970009FFF581CC3B2082BE7DB04480068012105
:10298000890408430149086000BD000000040050AC
:10299000F8B504460D4616461F460120009000F08B
:1029A0006DF8204600F040F8002801D1009016E0B4
:1029B000284600F039F8002801D100900FE000F01F
:1029C0005DF801212143084600F02EF8002801D1CE
:1029D000009004E0F9B2304600F005F800BF00F0C6
:1029E0005DF80098F8BD70B506460D4600240CE071
:1029F0003019FFF79DFF681EA04202D100F032F8A7
:102A000001E000F005F8601CC4B2AC42F0DB70BD20
:102A100000B500F0B3FA00F0A9FAFFF749FF00F0A3
:102A20009DFAFFF745FF00BD10B50346002414E0F2
:102A300080201840002802D000F0A8FA01E000F041
:102A40009DFA00F093FAFFF733FF00F087FA58067B
:102A5000030EFFF72DFF601CC4B2082CE8DB00F06A
:102A60002DF810BD00B500F091FA00F07FFAFFF7E5
:102A70001FFF00F073FAFFF71BFF00BD00B500F069
:102A800085FA00F073FAFFF713FF00F077FAFFF70B
:102A90000FFF00F063FAFFF70BFF00BD00B500F079
:102AA0006DFA00F05BFAFFF703FF00F05FFAFFF743
:102AB000FFFE00F06BFAFFF7FBFE00BD00B500F073
:102AC00065FA00F053FA0E48006803218904884330
:102AD0000B490860FFF7ECFE00F060FA024600F0D8
:102AE0003DFA074800680121890408430449086049
:102AF000FFF7DEFE002A01D0002000BD0120FCE728
:102B000000040050FFB581B00D4616461F46002058
:102B10000090FFF7B3FF0198FFF786FF002800D170
:102B200014E02846FFF780FF002800D10EE00024C3
:102B300007E0305DFFF778FF002800D106E0601C59
:102B4000C4B2BC42F5D30120009000BFFFF7A6FF3E
:102B5000009805B0F0BD000000B585B0012040032D
:102B60000090094801900120029069460748FEF74D
:102B7000F3FB002203210720FEF74EFD0720FEF79E
:102B80003FFD05B000BD00000000311000080050FE
:102B900010B52A4800780221084000282BD0274889
:102BA000007804210840002825D02448007802211C
:102BB00088432249087008460078042188431F4949
:102BC000087000201E4908801E480078002803D1A4
:102BD00001201C4908700EE000201A4908701A48AC
:102BE00041680020884718488168002088471648B7
:102BF000C1680020884715480078002811D00020BF
:102C00001249087012480078002804D00C48008847
:102C1000401C0B4908800B480078002801D000F0C8
:102C200021F80B480078002806D005480088C828FD
:102C300002DB01200749087010BD000024000020BD
:102C40002600002028000020140000200900002099
:102C5000250000202900002010B50446204600F081
:102C6000F3FF10BD10B539480078002804D00128C2
:102C700025D0022868D146E035480078FF2813DACD
:102C800033480078FF21081A32490870304800782C
:102C9000487000208870084600F0D8F92C48007869
:102CA000401C2B49087009E00020294908702A4976
:102CB000086026480078401C2449087044E02448F5
:102CC0000078FF2814DA0020224908702048007894
:102CD000FF21081A1F4948701D480078887008466F
:102CE00000F0B4F91A480078401C1949087009E04E
:102CF0000020174908701849086014480078401CE3
:102D00001249087020E012480078FF2814DA1048B1
:102D1000007810490870002048700D480078FF21A5
:102D2000081A0C498870084600F090F908480078A5
:102D3000401C0749087006E0002005490870064954
:102D400008600249087000BF00BF10BD2A000020C3
:102D50002E0000202B0000203000002070470000D3
:102D600010B5002819DA1A4A03071B0F083B9B0805
:102D70009B00D2588307DC0EFF23A3409A438B07A6
:102D80001B0E8407E40EA3401A43114B0407240FC3
:102D9000083CA408A4001A5118E00E4A03231B02A1
:102DA000D21883089B00D2588307DC0EFF23A34070
:102DB0009A438B071B0E8407E40EA3401A43054B6E
:102DC000032424021B198408A4001A5110BD00001A
:102DD0001CED00E000E100E000B599B003208002A6
:102DE0001490022015900020169017900220189041
:102DF00014A92548FEF7B0FA0120C0031490022060
:102E000015900020169017900520189014A900071F
:102E1000FEF7A2FA01208007009041150491642179
:102E20000391FF2090300190002102916846FFF746
:102E30009DFB00201290139012A96846FFF7D6F967
:102E400060200E9000200F901090119000220EA98B
:102E50006846FFF702FB08220EA96846FFF7FDFA55
:102E60000C220EA96846FFF7F8FA00216846FFF722
:102E7000A8FB08216846FFF7A4FB0C216846FFF772
:102E8000A0FB19B000BD00000004005070470520F1
:102E9000000740690821884305210907486100BFF0
:102EA000FEE70520000740690821084305210907BE
:102EB0004861704770B5054600240320FDF772FD98
:102EC0000446002C01D0204670BD0220FDF76AFDAB
:102ED0000446002C01D02046F6E70120FDF762FDF4
:102EE0000446002C01D02046EEE7002C01D02046FD
:102EF000EAE7062000F060F80446002C01D02046E6
:102F0000E2E7052000F058F80446002C01D02046E6
:102F1000DAE7042000F050F804462046D4E730B544
:102F200004462F2C07DD002000F0C0FD072000F034
:102F300047FE002030BD2546E117490F4919C91049
:102F4000C900611AC8B200F0B1FDE117490F491973
:102F50004905080E00F034FE0120EBE7FF200130A8
:102F6000014988627047000000040050FF200130D2
:102F700001498861704700000004005001204002B0
:102F8000014988627047000000040050012040029F
:102F9000014988617047000000040050054800693D
:102FA000012149020840002801D00120704700207B
:102FB000FCE7000000040050F8B504460020009033
:102FC0000025042C01DB062C01DDFF20F8BD204686
:102FD000FFF742FE6A4600211348FDF791FC684660
:102FE00000880321C90248430A214843C50B6943AD
:102FF0000846C821FDF77CF80546322D01D2002095
:10300000E4E7062C03D114202E4646430AE0052CA3
:1030100001D16E0006E0042C04D105212846FDF7FD
:1030200067F806463046D1E73400002070470000BC
:10303000642801DC0149086070470000400000403E
:10304000642802DC01218907C863704710B5044673
:103050002078064A516888476078044A9168884712
:10306000A078024AD168884710BD000014000020F3
:10307000642802DC012189074863704710B50446C3
:10308000002C03D1FDF76BFC012010BDFDF76CFC9B
:103090000020FAE7F8B504460D461646172C03DC67
:1030A000172D01DC012E01DD0120F8BDAC4201D15C
:1030B0000220FAE7182070430019C7B218207043A5
:1030C0004019C0B20090384601F01CFA0098FFF792
:1030D00026FF0020E9E7000010B5FDF740FC302096
:1030E00001F010FA3020FFF71AFF0548302142683E
:1030F000044890470248302182680248904710BD3A
:103100004C00002034000020F8B505460E46144659
:10311000172D03DC172E01DC012C01DD0120F8BD89
:10312000B54201D10220FAE72001E1004018401920
:10313000C7B22001E10040188019C0B200900648D3
:103140003946426805489047034882680348009919
:1031500090470020E3E700004C00002034000020EE
:1031600038B50025114908688047104800220C2115
:103170004368104698470D4800220C21836810468A
:1031800098470A48C168012088470848016900201B
:103190008847044600230C22194605A0009401F03C
:1031A0005DF9642001F02CFA38BD00005C000020BD
:1031B000506F72742025643A2043482825642C20DF
:1031C000256429202D2D205265733A202564204F37
:1031D000686D0D0A0000000010B5FEF7C5F9FFF795
:1031E00001F810BD30B59BB0224800680321C90228
:1031F00088430121C90240181E49086001200E9031
:1032000000040F90002017900EA8FEF7BBFC0028CA
:1032100001D0FDF775FC0F20099002200A900020D4
:103220000B900C900D90002109A8FEF711FB0028CF
:1032300001D0FDF765FC012001900020029001A85B
:10324000FEF7F4F9002801D0FDF75AFCFEF7FCFB6D
:1032500005467D21C900FCF74BFF0446FEF7A6FF9B
:103260000420FEF78FFF00221146501EFEF7D4F90E
:103270001BB030BD0070004015480068FF210131CF
:103280000843134908600846C068124908401049BD
:10329000C86008460068104908400D4908600846A3
:1032A0008068400840008860084600680121890461
:1032B0008843074908600846C068FD21090488431F
:1032C0000349C86000200861C8030449886070474A
:1032D000001002400C40FF88F6FFF6FE00ED00E013
:1032E00010B50248FEF7FAFF10BD0000CC00002028
:1032F0001CB5144814490860144915480068FCF7C7
:10330000F7FE401E1049486000210F48816063218C
:10331000C160FEF79CFF002801D0FDF7F1FB002003
:103320000090019069460848FEF760FF002801D030
:10333000FDF7E6FB0448FEF7C1FF002801D0FDF7CA
:10334000DFFB1CBD00100040CC00002040420F00FD
:103350000000002010B50022026801239B0798425C
:1033600008D01A4B984205D0194B984202D0194BFD
:10337000984201D1012300E00023002B05D07024E6
:103380001346A3431A464B681A4301239B079842EE
:1033900008D00E4B984205D00D4B984202D00D4BF1
:1033A000984201D1012300E00023002B06D0032422
:1033B00024021346A3431A46CB681A4302608B6863
:1033C000C3620B6883620123436110BD00040040A7
:1033D000000801400014014030B5002301248C4056
:1033E0002346046A9C430462046A15468D402C43BC
:1033F000046230BD70B5002200230024056A6D0808
:103400006D000562036A4468826970261546B543FB
:103410002A46920892000D682A4302261D46B543AB
:103420002B468D682B43446082614D68456303627F
:1034300070BD70B5002200230024056A1026B54334
:103440000562036A44688269072636031546B54358
:103450002A46032636021546B5432A460D682D0234
:103460002A4320261D46B5432B468D682D012B434C
:10347000446082614D688563036270BD70B500224F
:1034800000230024056AFF260136B5430562036A5E
:103490004468C26970261546B5432A4692089200D0
:1034A0000D682A43012676021D46B5432B468D68DA
:1034B0002D022B434460C2614D68C563036270BD39
:1034C00070B5002200230024056A01263603B543A7
:1034D0000562036A4468C269072636031546B54388
:1034E0002A46032636021546B5432A460D682D02A4
:1034F0002A43012676031D46B5432B468D682D03CE
:103500002B434460C2614D680564036270BD0000D6
:1035100003480078002802D0002001490870704755
:103520000800002010B5002404480078002804D0CA
:10353000002002490870FFF713FE10BD0A000020AA
:1035400000B5030001F02BF80604172A3D506376FE
:103550003949098849084900374A118011460988C4
:1035600002229143344A1180114609880422914372
:10357000314A11805EE030490988490849002E4AE5
:10358000118011460988022291432B4A118011466D
:10359000098804221143284A11804BE026490988F2
:1035A00049084900244A1180114609880222114322
:1035B000214A118011460988042291431E4A118034
:1035C00038E01D490988490849001B4A1180114605
:1035D000098802221143184A1180114609880422E1
:1035E0001143154A118025E013490988012211432E
:1035F000114A118011460988022291430E4A118016
:1036000011460988042291430B4A118012E00A49AD
:10361000098801221143084A1180114609880222B3
:103620009143054A11801146098804221143024A38
:10363000118000BF00BF00BD4800002000B503009E
:1036400000F0ADFF0604172A3D506376394909881A
:1036500008229143374A118011460988102291436C
:10366000344A11801146098820229143314A118041
:103670005EE030490988082291432E4A11801146A4
:103680000988102291432B4A118011460988202273
:103690001143284A11804BE02649098808229143AA
:1036A000244A11801146098810221143214A1180B1
:1036B00011460988202291431E4A118038E01D4995
:1036C0000988082291431B4A11801146098810225B
:1036D0001143184A11801146098820221143154AC6
:1036E000118025E01349098808221143114A1180ED
:1036F00011460988102291430E4A1180114609880B
:10370000202291430B4A118012E00A4909880822BD
:103710001143084A11801146098810229143054A35
:1037200011801146098820221143024A118000BFEE
:1037300000BF00BD4800002000B5030000F02FFFCF
:103740000805192D4155697D91A5514909884022E7
:1037500091434F4A118011460988802291434C4A77
:10376000118011460988FF2201329143484A118095
:103770008BE04749098840229143454A1180114610
:10378000098880229143424A118011460988FF220C
:10379000013211433E4A118077E03D4909884022B9
:1037A00091433B4A11801146098880221143384ACF
:1037B000118011460988FF2201329143344A118059
:1037C00063E03349098840229143314A1180114610
:1037D0000988802211432E4A118011460988FF2250
:1037E000013211432A4A11804FE0294909884022B9
:1037F0001143274A11801146098880229143244AA7
:10380000118011460988FF2201329143204A11801C
:103810003BE01F490988402211431D4A118011468F
:103820000988802291431A4A118011460988FF2293
:1038300001321143164A118027E0154909884022B8
:103840001143134A11801146098880221143104AFE
:10385000118011460988FF22013291430C4A1180E0
:1038600013E00B49098840221143094A118011468F
:10387000098880221143064A118011460988FF22D7
:1038800001321143024A118000BF00BF00BD000099
:103890004800002000B5030000F081FE08051B3140
:1038A000475D73899FB559490988012252029143A6
:1038B000564A118011460988012292029143534AC7
:1038C0001180114609880122D20291434F4A11808A
:1038D00099E04E4909880122520291434B4A1180D6
:1038E00011460988012292029143484A11801146EB
:1038F00009880122D2021143444A118083E04349DE
:103900000988012252029143404A118011460988D8
:103910000122920211433D4A118011460988012279
:10392000D2029143394A11806DE038490988012259
:1039300052029143354A11801146098801229202B0
:103940001143324A1180114609880122D2021143E3
:103950002E4A118057E02D49098801225202114355
:103960002A4A118011460988012292029143274A6E
:103970001180114609880122D2029143234A118005
:1039800041E0224909880122520211431F4A118055
:10399000114609880122920291431C4A1180114666
:1039A00009880122D2021143184A11802BE01749DD
:1039B0000988012252021143144A118011460988D4
:1039C000012292021143114A1180114609880122F5
:1039D000D20291430D4A118015E00C490988012259
:1039E00052021143094A11801146098801229202AC
:1039F0001143064A1180114609880122D20211435F
:103A0000024A118000BF00BF00BD00004800002036
:103A100000B5030000F0C3FD08050D151D252D356B
:103A20003D458021204A916240219162202191628E
:103A300037E080211C4A91624021916220219161EE
:103A40002FE08021184A91624021916120219162EA
:103A500027E08021144A91624021916120219161E7
:103A60001FE08021104A91614021916220219162E2
:103A700017E080210C4A91614021916220219161DF
:103A80000FE08021084A91614021916120219162DB
:103A900007E08021044A91614021916120219161D8
:103AA00000BF00BF00BD00000004005000B50300CF
:103AB00000F075FD08050D151D252D353D45082126
:103AC000204A9162042191620221916237E008212B
:103AD0001C4A916204219162022191612FE0082128
:103AE000184A9162042191610221916227E0082124
:103AF000144A916204219161022191611FE0082121
:103B0000104A9161042191620221916217E008211B
:103B10000C4A916104219162022191610FE0082118
:103B2000084A9161042191610221916207E0082114
:103B3000044A9161042191610221916100BF00BF9B
:103B400000BD00000008005000B5030000F027FD94
:103B500006040C141C242C340421184A91620221FE
:103B600091620121916227E00421144A91620221AD
:103B70009162012191611FE00421104A91620221AA
:103B800091610121916217E004210C4A91620221A6
:103B90009161012191610FE00421084A91610221A4
:103BA00091620121916207E00421044A916102219E
:103BB00091620121916100BF00BF00BD000400506F
:103BC00000B5030000F0EBFC06040D161F28313A87
:103BD00008211B4A9162102191624021194A916289
:103BE0002CE00821164A9162102191624021154A69
:103BF000916123E00821124A9162102191614021D4
:103C0000104A91621AE008210D4A916210219161D7
:103C100040210C4A916111E00821094A916110216B
:103C200091624021074A916208E00821044A9161AB
:103C3000102191624021034A916100BF00BF00BD85
:103C4000000400500008005000B5030000F0A7FC7D
:103C500008050E172029323B444D01218902244AD0
:103C6000916249009162490091623EE0012189021E
:103C70001F4A9162490091624900916135E001213A
:103C800089021B4A916249009161490091622CE0CE
:103C900001218902164A91624900916149009161AE
:103CA00023E001218902124A916149009162490091
:103CB00091621AE0012189020D4A916149009162E5
:103CC0004900916111E001218902094A916149008D
:103CD00091614900916208E001218902044A9161E1
:103CE000490091614900916100BF00BF00BD000023
:103CF00000080050818CC907C90F002908D001684D
:103D00004968012252049143826A1143026851605A
:103D10000222416A1140002907D001684968D20394
:103D20009143C26A1143026851600422416A114002
:103D3000002907D00168496812049143026B1143BE
:103D4000026851600822416A1140002907D00168C9
:103D5000496812039143426B11430268516010227B
:103D6000416A1140002907D0016889681202914315
:103D7000826B1143026891602022416A1140002940
:103D800007D00168896812029143C26B114302682F
:103D900091604022416A1140002915D001684968AC
:103DA00092039143026C1143026851600122120593
:103DB000016C914208D10168496803225205914380
:103DC000426C1143026851608022416A114000290F
:103DD00007D00168496812039143826C114302685D
:103DE0005160704710B504462068006808210840FB
:103DF000082809D1134B00228104204600F08CFAD8
:103E0000002801D0032010BD20680068042108406C
:103E1000042809D10B4B00220105204600F07CFA52
:103E2000002801D00320EEE700BF002168200155E3
:103E300000BF0020E0662021692001556A2001555D
:103E40000020E0E7F0550000F0B591B004460026F0
:103E5000002500200F900E90F6492068884201D17D
:103E6000012000E00020002800D000E000BF216910
:103E7000A068084361690843E16908430646206871
:103E80000068ED49084030432168086020684068B8
:103E9000032109038843E168084321684860A66953
:103EA000E4492068884201D1012000E00020002878
:103EB00001D1206A0643206880680B2109028843EB
:103EC00030432168886000BFDC492068884216D1F1
:103ED000DB48C0688007800F002806D0012808D082
:103EE000022804D0032808D105E0012506E00225B8
:103EF00004E0042502E0082500E000BF38E0D149D5
:103F00002068884216D1CE48C0680C21084000289D
:103F100006D0042808D0082804D00C2808D105E0D1
:103F2000002506E0022504E0042502E0082500E063
:103F300000BF1DE0BF492068884219D1C048C06851
:103F4000032189020840002808D001218902401A73
:103F500008D0401A04D0401A08D105E0002506E038
:103F6000022504E0042502E0082500E000BF00BFB0
:103F700000BFB0492068884201D1012000E0002044
:103F800000287DD0002D06D0022D38D0042D78D009
:103F9000082D77D1BDE0626810460021FCF794FA45
:103FA0000B910A9002220023676838461946FCF7F5
:103FB000C9F803910290FCF787FA07910690FDF784
:103FC00049FD002101910090FCF77EFA00229E4BF2
:103FD00003910290FCF798F905910490079B069ACB
:103FE000FCF7E0F8099108900B9B0A9AFCF7F4F9AA
:103FF0000D910C90FCF776FA2168C860AFE090480C
:1040000040380068102108400009002824D0626868
:1040100010460021FCF758FA0B910A900222002367
:10402000676838461946FCF78DF805910490FCF74F
:104030004BFA0022854B07910690FCF7B3F80991E3
:1040400008900B9B0A9AFCF7C7F90D910C90FCF7AE
:1040500049FA2168C86027E0626810460021FCF731
:1040600033FA0B910A9002220023676838461946FA
:10407000FCF768F805910490FCF726FA002202E0AC
:104080006EE012E06AE0724B07910690FCF78AF846
:10409000099108900B9B0A9AFCF79EF90D910C90E0
:1040A000FCF720FA2168C86059E0626810460021D8
:1040B000FCF70AFA0B910A9002220023676838463F
:1040C0001946FCF73FF803910290FCF7FDF90791C0
:1040D0000690FDF7E3FC002101910090FCF7F4F954
:1040E0000022594B03910290FCF70EF905910490C0
:1040F000079B069AFCF756F8099108900B9B0A9AC1
:10410000FCF76AF90D910C90FCF7ECF92168C86096
:1041100025E0626810460021FCF7D6F90B910A9061
:1041200002220023676838461946FCF70BF8059110
:104130000490FCF7C9F90022464B07910690FCF762
:1041400031F8099108900B9B0A9AFCF745F90D91FB
:104150000C90FCF7C7F92168C86000E000BFD3E00D
:104160000121C903E06988427CD12B0000F017FAD5
:1041700009061320513A515151475100FDF76AFC8D
:10418000400061684908471838466168FBF7B0FF8E
:1041900080B20E903EE0FDF76FFC40006168490878
:1041A000471838466168FBF7A3FF80B20E9031E0F4
:1041B000234840380068102108400009002808D032
:1041C00061684A08244BD018FBF792FF80B20E902A
:1041D00007E061684A08214BD018FBF789FF80B2DD
:1041E0000E9017E0FDF75AFC400061684908471837
:1041F00038466168FBF77CFF80B20E900AE0616888
:104200004A0801231B04D018FBF772FF80B20E90FE
:1042100000E000BF00BF12490E9808400F900E98B2
:104220000007400F0F9908430F900F982168C8604E
:104230006AE017E000480040F369FFEF00380140F2
:104240004010024000440040000070408084CE4195
:104250008084EE410000604100127A000048E801CD
:10426000F0FF00002B0000F09AF90906121E4D37EE
:104270004D4D4D434D00FDF7EDFB61684908471872
:1042800038466168FBF734FF2168C8603BE0FDF702
:10429000F3FB61684908471838466168FBF728FF57
:1042A0002168C8602FE01948006810210840000903
:1042B000002808D061684A08154BD018FBF718FF92
:1042C0002168C86007E061684A08124BD018FBF704
:1042D0000FFF2168C86016E0FDF7E0FB6168490840
:1042E000471838466168FBF703FF2168C8600AE099
:1042F00061684A080123DB03D018FBF7F9FE216847
:10430000C86000E000BF00BF11B0F0BD0010024067
:1043100000093D000024F400FFB581B004460E46BC
:104320001D460027FDF71AF90746039800283BD1E0
:104330002FE0681C00282CD0002D04D0FDF70EF9CA
:10434000C01BA84225D920680068802188432168C5
:104350000860206800682021884321680860206880
:104360000068FF2101318843216808602068806867
:1043700040084000216888602021692001556A209A
:10438000015500BF00216820015500BF032005B082
:10439000F0BD2068C0693040B04201D1012000E08A
:1043A00000200028C5D039E02EE0681C00282BD062
:1043B000002D04D0FDF7D2F8C01BA84224D92068F4
:1043C00000688021884321680860206800682021F7
:1043D00088432168086020680068FF210131884314
:1043E0002168086020688068400840002168886073
:1043F0002021692001556A20015500BF0021682055
:10440000015500BF0320C2E72068C0693040B042B8
:1044100001D1012000E000200028C6D10020B6E72D
:1044200010B50C480C490860E120400248600021AA
:1044300009488160C16001610C21416100218161F5
:10444000C16101620020044948620846FEF707F98D
:1044500010BD000000380140780100200FB4F8B50D
:1044600007A80090254C002638E0069800782528FB
:104470002BD10698401C06900078642802D078283A
:104480001ED10EE0009880C800902146384600F00A
:10449000C1F805466419701986B20698401C06904A
:1044A00012E0009880C800902146384600F0E9F8F4
:1044B00005466419701986B20698401C069003E000
:1044C0000698401C069000BF08E00698007820700F
:1044D0000698401C641C0690701C86B206980078F2
:1044E0000028C2D1FF23F533324604490448FEF7C1
:1044F00037F9F8BC08BC04B018470000E8010020F8
:104500007801002030B504462F2C07DD0020FFF78E
:104510007FFA0720FFF718FB002030BD2546E11782
:10452000490F4919C910C900611AC8B2FFF770FADA
:10453000E117490F49194905080EFFF705FB01204E
:10454000EBE7000010B50848084908600020486003
:10455000402106488160C160FEF765F9002801D05E
:10456000FCF7CEFA10BD0000002C00400401002032
:104570002021020C01D010211046020A01D0104661
:104580000839020901D01046091F820801D01046DF
:10459000891E420801D0881E7047081A704730B43F
:1045A0007446641E2578641CAB4204D3635D5B00D3
:1045B000E31830BC18471D46F8E702E008C8121F90
:1045C00008C1002AFAD170477047002001E001C1FC
:1045D000121F002AFBD1704770B57D21C900074822
:1045E0000068FBF785FD05460321FBF781FD84B2DA
:1045F00001E0601E84B2002CFBD170BD00000020E1
:1046000010B5044603E0FFF7E7FF601E84B2002CFC
:10461000F9D110BDF0B585B007460E4600200090D8
:10462000002F02DA7F4201200090002400BF0A21FF
:104630003846FBF773FD3031CAB22046611CCCB25C
:1046400001A90A540A213846FBF768FD071EEEDC73
:104650000098002802D02D203070761C002506E03E
:10466000601B401E01A9085C7055681CC5B2A542BC
:10467000F6DB0098002801D0601CC4B2204605B0CB
:10468000F0BD3CB502460B46002000BF1407240FC6
:104690006D462C546C46245C092C04DD6C46245C6D
:1046A00057342C5404E06C46245C30346D462C5452
:1046B000441CE0B21411221EE8DC002106E0441A7A
:1046C000641E6D462C5D5C544C1CE1B28142F6DBED
:1046D0003CBD0000FCF750FFFEF784FDFCF76AFAD2
:1046E000FEF7DFFB1749086880470A20FEF7C0FC89
:1046F0000A20FEF7A5FC0A20FEF79AFCFFF790FEC1
:10470000114908688047114801680F4888471049D7
:1047100008688047FFF716FFFEF7EAFDFEF71CFA70
:104720000FE0FEF735FAFEF7F3FEFEF7FBFE094851
:104730000078012805D17D20C000FFF761FFFEF75A
:10474000A6FBEEE714000020340000204C000020FF
:1047500040000020290000200000000000000000B0
:104760000102030406070809000000000102030417
:10477000030406080C101820300000009C470008B5
:104780000000002074000000BA450008104800082E
:104790007400002074060000CA45000880841E00D2
:1047A0000000000000000000000000000000000009
:1047B000D92D000871300008413000083130000860
:1047C00000000000000000000000000000000000E9
:1047D000C128000891290008052B00084508000899
:1047E000350D00080000000075090008030B0008E3
:1047F000470B0008592C0008D930000895300008F4
:10480000093100087D300008B52E000800000000C6
:04000005080000C12E
:00000001FF
