:020000040800F2
:1000000090060020D500000895230008F91F00087D
:1000100000000000000000000000000000000000E0
:100020000000000000000000000000008D25000816
:10003000000000000000000081240008A92600083C
:10004000E7000008E7000008E7000008E7000008F4
:10005000E7000008E7000008E7000008C9080008FA
:1000600000000000E7000008E7000008E7000008C3
:10007000E7000008E7000008E7000008E7000008C4
:10008000E700000879270008E700000800000000EA
:10009000E7000008E7000008E7000008E7000008A4
:1000A000E7000008E7000008E7000008E700000894
:1000B000E7000008E7000008000000000000000062
:1000C0000348854600F04CFA0048004761320008BA
:1000D000900600200448804704480047FEE7FEE7FA
:1000E000FEE7FEE7FEE7FEE725270008C10000085F
:1000F00030B50B46014600202022012409E00D46C0
:10010000D5409D4205D31D469540491B2546954047
:1001100040191546521E002DF1DC30BD70B500248B
:100120002546002801DA01244042002901DA012590
:100130004942FFF7DDFFAC4200D04042002C00D026
:10014000494270BDF0B507460846584087B0C00F19
:10015000049048000E46590040084908BC1A8841DE
:1001600005D2384631461E4617460B460246580011
:10017000400810434CD0300D039040055900400D0D
:10018000490D0590401A0290402872DA18030121A7
:10019000000B09050843019004980092002805D03F
:1001A000019952420020884100920190029840211A
:1001B0000A1A0199009800F03FF905460C466B4673
:1001C00007CB00F05AF9C0197141039A0E0D0023B4
:1001D000D71756401A467A40164344D0049A002A4C
:1001E0002DD0029A012A039A15DC1205C01A9141FA
:1001F00001263605001C7141D20F059ED2070093DF
:10020000019202962A46234600F057F907B0F0BD46
:1002100038463146FAE71605224A0F46B218C01A88
:10022000B74101210905001C4F4100187F411146CB
:1002300018187941E20F10436D19644113E0E20789
:100240006D0815436408C2071443039A012612057A
:10025000C01A91413605001C7141CE074008304359
:100260004908C01851412A46234600F019F9CDE744
:10027000FFE7049801224000C117121A00238B41A6
:1002800004983146C417381AA141EEE730B401246E
:10029000E407634030BC55E730B40124E407614013
:1002A00030BC4FE70000E0FFF0B50C465C4085B085
:1002B000E40FE40703944C000026640859009446B8
:1002C000490802460296224321D062460A431ED0C4
:1002D0006200570D4A000E032303550D0124024608
:1002E0002C492405781B1B0B360B4018234326434F
:1002F000614600901C46501AB44103D30098401C3C
:10030000009002E0921800985B41002803DA002078
:10031000014605B0F0BD00200121090507468646CB
:1003200011E064461D46141BB54106D36546521BB9
:10033000B341744607430C43A646CD07400849081D
:10034000284392185B4105460D43EAD110461843F5
:1003500013D06046194650407140084306D06046AD
:10036000101AB34106D20122002306E00022012325
:10037000DB0702E00122D2435310009874460105C6
:10038000381C6141029C039D0019694100F088F806
:10039000BFE70000FD03000070B54B005B0803439E
:1003A0000BD04B005C0D002633466542B341D41799
:1003B000AD1AA34102DB0020014670BD12053018C2
:1003C000514170BD0EB505490291002100910A46C8
:1003D0000B46019100F071F803B000BD330400003A
:1003E0000EB5054A0292002200921346019200F0D7
:1003F00064F803B000BD0000330400004A000903A4
:100400000123090B1B051943094B10B5520D9A42E4
:1004100001DA002010BD064B34339A4203DC9A1AED
:1004200000F01AF810BD03495118884010BD0000B3
:10043000FF030000CDFBFFFF10B5202A04DB0146BF
:10044000203A9140002010BD914020239C1A034681
:10045000E3401943904010BD10B5202A04DB084644
:10046000203AD040002110BD0B46D340D04020247C
:10047000A21A91400843194610BD10B5202A06DB88
:10048000CB170846203A1041C1170B4306E00B4634
:100490001341D0402024A21A91400843194610BDB0
:1004A00010B5002B08DA0024401C614192185B4112
:1004B0001A4301D14008400010BDF0B51FB482B00E
:1004C00005460C0003D0084602F037FE02E002F0B9
:1004D00034FE20300246009021462846FFF7ACFF4C
:1004E000049B059A04460F4618431143084314D051
:1004F000184610431BD0009840210A1A1846059947
:10050000FFF7AAFF05460E46009A05990498FFF7E3
:1005100093FF084305D0012004E02046394607B088
:10052000F0BD0020C11705430E432C43374300990B
:100530000E986305401A7905E40A00220C43FD0A6F
:100540000A3002D500200146E9E70105101969418A
:100550000C9C0D9D00196941FFF7A2FFDFE7000029
:10056000064C0125064E05E0E36807CC2B430C3C06
:1005700098471034B442F7D3FFF7A6FD6033000864
:100580008033000870B5044600688168490720D5AB
:10059000816810264907002905DA8168890702D495
:1005A00081683143816000F04FFE05460DE000F0A8
:1005B0004BFE401B0A2808D9A06D3043A065E06DB2
:1005C00001210843E065084670BD20688068400747
:1005D000EDD4002070BD000038B50446064805493A
:1005E0000068FFF785FD604300E0401E0090002892
:1005F000FBD138BD40420F0000000020F8B5044692
:10060000006881688907890F012925D10168C90718
:1006100022D08168052211401025012601290FD121
:10062000816802221143816021680320086000F084
:100630000BFE07460CE000F007FEC01B0A2807D996
:10064000A06D2843A065E06D3043E0650120F8BD52
:1006500020688068C007EED10020F8BDF8B50446D8
:10066000006881688907890F012902D10168C907DB
:1006700022D18168114A10261140012500290ED18E
:100680008168294381600120FFF7A6FF00F0DCFDAF
:1006900007460CE000F0D8FDC01B0A2807D9A06D62
:1006A0003043A065E06D2843E0650120F8BD206877
:1006B0000068C043C007EDD10020F8BD17000080DE
:1006C0001CB521492148012412C018210160602174
:1006D0004160002181604164C1630464446101613F
:1006E000C16101620322416292078461C260C162FA
:1006F000042242630163083800F02CFB00281AD161
:100700002003019069460094104800F0D5FA0028B3
:1007100011D10F488168620611438160816892108F
:10072000114381608168521011438160074800F0D5
:100730006FFC002801D000201CBD0021034800F000
:1007400073FA01201CBD000000240140BC00002001
:1007500000270140F8B515460446032901D90020B9
:10076000F8BD09016846C0310170E32141700223E0
:100770000121A6686A469020B0470028F0D00220E8
:1007800002F01EFD6468022300216A469020A04703
:100790006946098849BA2980F8BD0420052109075E
:1007A00088627047042005210907886170470000AE
:1007B000F8B50546002468460470447002230621FB
:1007C000AE686A464020B047002804D00248048042
:1007D000284600F067F9F8BD4800002038B5044607
:1007E000032801D9FF2038BD01F096FD052002F055
:1007F000E7FC6A4601212C48FFF7ACFF68460088F9
:100800000321C9024843C00B0A214843FFF770FC8B
:10081000E32801D2002038BDFF21A231884201D255
:1008200001202CE02149884201D2022027E01F4903
:100830008931884201D2032021E01D49884201D23A
:1008400004201CE01A496931884201D2052016E0D3
:100850001749C431884201D2062010E01549884268
:1008600001D207200BE01449884201D2082006E09B
:1008700010498B31884201D2092000E00A20032C64
:1008800006D0022C06D0012C06D0002C06D008E0A1
:100890000A4905E00A4903E00A4901E07D21C9004F
:1008A00048430A21484338BD34000020410200007B
:1008B00041030000570400003207000040420F00CF
:1008C000A08601001027000010B500F001F810BD4F
:1008D00010B50A4800690C4984040A4A084B087894
:1008E000536104D4022210430870012003E0042263
:1008F000104308700020487010BD00000008005030
:1009000000200000000401402400002070B5FF24F6
:10091000284D0134AC620A2002F052FCAC61642024
:1009200002F04EFCE40005252D07AC62012000F02A
:1009300075F8032000F07CF8002000F079F806201C
:1009400000F06CF8072000F073F8072000F070F852
:10095000072000F06DF8042000F060F800F02CF89B
:10096000002000F05BF80F2000F062F8502000F04B
:1009700055F8972000F05CF8302000F04FF839204F
:1009800000F056F8612000F049F8012000F050F81E
:10099000902000F04DF8012000F04AF82C2000F0E3
:1009A00047F8822000F03AF8122000F041F8AC61DC
:1009B00070BD00000008005070B5002419250B4ED2
:1009C0006D01712000F02AF80A2002F0F9FB641C86
:1009D000A4B2AC4205D88021304600F029FC0028A2
:1009E000EFD0642002F0ECFB70BD00000008005066
:1009F00030B508221403084993028B62050601D51D
:100A00008C6100E08C628B614006521E000E120663
:100A1000120EF2D130BD00000004005000B50121DB
:100A2000024A49029162FFF7E3FF00BD000800504F
:100A300000B50121024A49029161FFF7D9FF00BDCB
:100A40000008005070B50C4605462F2907D9002034
:100A500001F0C6FF062001F07BFF002070BD60079B
:100A6000400F01F0BDFFE00801F072FF284600F0E2
:100A700019F870BD70B50C4605462F2907D900201E
:100A800001F0D8FF062001F087FF002070BD60074D
:100A9000400F01F0CFFFE00801F07EFF284600F094
:100AA00001F870BD38B506496A4609880B0A5370CB
:100AB00011700223846819464020A04738BD000009
:100AC00048000020F0B5414887B0C16A0426314390
:100AD000C162C16A31400591C26A80210A43C26283
:100AE000C26A0A400592C16A01252943C162C16AEE
:100AF00029400591C26A02210A43C262C26A0A40C1
:100B00000592C26A08210A43C262C06A304F084097
:100B100000240097059002946946019503942D489E
:100B200000F0C4FA8120009001946946029429489B
:100B300000F0BCFA2848009005200294694601950F
:100B40000394000700F0B2FA24480090029469462A
:100B500001950394224800F0A9FAA803009001949B
:100B6000694602941E4800F0A1FA029403941D4CB9
:100B7000694600960195204600F098FA0022394611
:100B8000144800F05AFB052000222C21000700F039
:100B900054FB01220520D102000700F04EFB002289
:100BA00011490F4800F049FB1321012209020C48AA
:100BB00000F043FB00220421204600F03EFB01220E
:100BC0000821044800F039FB07B0F0BD00100240D6
:100BD0004E1F0000000800502C080000FFB300006A
:100BE00000040050000C0050FFA0000010B50C499C
:100BF00088620C4800F00CFA002805D1322109481F
:100C000000F0A6F9002801D0002010BD054800F032
:100C10009DF884B2034800F029FA204610BD000078
:100C200000240140BC000020F8B5054604464035CC
:100C3000287D0026012808D00120287520688168B9
:100C40008907890F01290ED101E00220F8BD016852
:100C5000C90708D0A06D20210843A0650126002007
:100C600028753046F8BDA16DFF2201329143022262
:100C70001143A165816892071143816000F0E4FA95
:100C800007460EE000F0E0FAC01B0A2809D9A06D63
:100C90000221884310210843A06500202875012007
:100CA000F8BD206880680028ECDBA06D800880001B
:100CB000401CA065D3E70000F8B506460D46403657
:100CC000317D01290DD00121317501688A685207F3
:100CD00009D5816D202211438165002030750120E6
:100CE000F8BD0220F8BD174B6A68D80547109A4234
:100CF000154C8A6A2B6812D05B035B0B1A438A621D
:100D00002968490305D5A1680143A1600A20FFF7BE
:100D100063FC2868800312D5A06838430EE05B03AB
:100D20005B0B9A438A622968490302D5A168814313
:100D3000A1602868800302D5A068B843A0600020A5
:100D40003075F8BD01100000002701400068006CFC
:100D50007047000070B5040006D0A06D264600253F
:100D60004036002802D006E0012070BDE5653575EB
:100D7000204600F0D1F8A06DC00603D42168886831
:100D8000400705D5A06D10210843A0653575EBE738
:100D9000A06DFF220132904302221043A0658868B3
:100DA0008207920F5948012A02D10A68D2072BD133
:100DB000032362699B079A4205D05B429A4202D0A4
:100DC0005B009A4209D10A69920092080A6121687F
:100DD0000A6963691A430A610CE00A699200920881
:100DE0000A6181680F22920491438160816862697F
:100DF000114381602168CA6818239A43CA60216838
:100E0000CA68A3691A43CA608168012252069143E5
:100E100081608168A26C52061143816020688168FC
:100E2000C90004D48168012212071143816020683F
:100E3000C168374A1140C160216A606A022923D023
:100E400000210843A16AA26B4903520011430843E1
:100E5000216C0843616C89030843E16CC9030843B2
:100E60002168CA681043C860206B0146FF39C23947
:100E700005D0616B08432168CA681043C860E06A06
:100E80000121012802D00BE00421DAE7A06A002842
:100E900023D0A06D20221043A065E06D0843E065DB
:100EA0006068012820681FD00169C90703D0016963
:100EB00049084900016120684169C908C9004161C8
:100EC00020684169E26911434161E565A06D8008D0
:100ED0008000401CA065002070BD2068C26801230E
:100EE0001B041A43C260DBE702690A4B1A40026125
:100EF00020680269A36826691A43E36833431A43EA
:100F00000261206802690A430261D4E700270140B8
:100F10001902FEFF03FCFF7F00B500680A4985B097
:100F200088420FD10948416B421511434163132098
:100F300000900320019000200290052069460007E0
:100F400000F0B4F805B000BD0024014000100240DC
:100F5000F8B50446C06B254640350E4608280BD030
:100F60002068C068C00709D0A06D20210843A06593
:100F7000002028750120F8BD082700E00C2700F0AC
:100F800063F9009011E0701C0FD0002E05D000F026
:100F90005BF90099401AB04207D9A06D04210843BB
:100FA000A065002028750320F8BD2068006838423D
:100FB000E9D0A06D012149020843A0652068C168FD
:100FC00009058A0F0C21002A1AD1A26A002A17D11A
:100FD0000268120714D5826853070122002B08DB30
:100FE00043688B434360A06D130298431043A06590
:100FF00006E0A06D20231843A065E06D1043E06576
:10100000606C002801D1206801600020F8BD00005C
:1010100070B50446216800208968490721D4254617
:101020004035297D01291CD001212975E16C012958
:1010300004D02046FFF712FB002811D1A16D0A4A07
:101040001140FF2201321143A1650021E16529759C
:1010500022681C21116021688A6804231A438A606F
:1010600070BD022070BD0000FEF1FFFF70B50546A7
:1010700004464035287D012807D001262E752046DC
:10108000FFF780FA002802D00CE0022070BD204655
:10109000FFF7B4FA002805D1A16DFF220132914378
:1010A0003143A1650021297570BD0000F8B500230A
:1010B0000124A7E027469F403A4070D04D68022D9A
:1010C00001D0122D14D1DD08AD002D1800952D6A28
:1010D0005E07AC46F50E0F26AE46AE406546B543FC
:1010E000AC460E697546AE4065462E43009D2E62A5
:1010F0004D68012D05D0022D03D0112D01D0122DE8
:1011000016D185680326AC465D00AE46AE40654606
:10111000B543AC46CE687546AE4065462E43866004
:1011200046680D79BE43ED06ED0F9D4035434560A1
:1011300006685F000325BD40AE46AE430D79B44658
:10114000AE07B60FBE4065462E430660C6687546BC
:10115000AE438D68BD403543C5604D68ED0050D548
:101160002B4D6E6B26436E639E082A4DB600751993
:10117000AC46AD689E07360F0F27B740BD43052725
:101180003F07B84201D100271AE0234FB84201D1EE
:10119000012715E0214FB84202D1022710E030E0CC
:1011A0001F4FB84201D103270AE01E4FB84201D1B8
:1011B000042705E01C4FB84201D1052700E00627AF
:1011C000B7402F436546AF60184D2E684F68964371
:1011D000FF0300D516432E606E684F689643BF0329
:1011E00000D516436E60AE684F689643FF0200D587
:1011F0001643AE60EE684F689643BF0200D51643B3
:10120000EE605B1C0A681546DD4000D052E7F8BD71
:10121000001002400000014000040050000800508F
:10122000000C005000100050001C00500004014051
:101230000069084000D001207047002A01D0816178
:1012400070478162704700000148006870470000E5
:101250000400002002480168491C0160704700003A
:101260000400002010B506480168402211430160C7
:10127000002000F007F800F019F8002010BD000071
:101280000020024010B5044607487D21C9000068CF
:10129000FEF72EFF00F0F4FB00222146501E00F066
:1012A0002BF8002010BD00000000002010B50C48F5
:1012B000416B012211434163816B0204114381633D
:1012C00000221146501F00F017F800221146901E10
:1012D00000F012F800221146501E00F00DF810BD6B
:1012E00000100240C106C90E012088400149086073
:1012F0007047000000E100E010B501F04DF810BDAE
:10130000F8B504460078534D800660D5514E403EF6
:1013100031680327A0693F05024639403A409142AF
:1013200008D08003800F032804D13068800301D5E2
:101330000120F8BDB06B012109070843B06346489E
:101340000168821511430160FFF77EFF009005E000
:10135000FFF77AFF0099401A642823D83E480068B6
:10136000C005F5D5286903210904A26908400A408F
:1013700090422CD028692A6988430121C9040A4374
:101380002A612A698A432A61286180050FD5FFF7FF
:101390005BFF009008E0FFF757FF0099411A2F48C4
:1013A000814201D90320F8BD28698005F3D5A069E1
:1013B0008103890F032946D03068B843306029691A
:1013C00003200004A269814302401143296120786F
:1013D000C00705D0E8686168800880000843E860BD
:1013E0002078800705D5E8680C218843A168084368
:1013F000E8602078400706D5E86803218902884321
:10140000E1680843E8602078000706D5E868032112
:101410000903884321690843E8602088C00506D590
:10142000E86803210904884361690843E86020787B
:10143000000606D5E868032189048843E16908436A
:10144000E8600020F8BD31683840B943014331609D
:10145000B5E7000040100240007000408813000013
:10146000F8B5054653480E460068C007C00FB042A5
:101470000AD25048016849084900314301600068B8
:10148000C007C00FB0426FD128784B4C800705D5FC
:10149000E068F0218843A9680843E0602878C00725
:1014A00052D06868022817D0002818D02168032875
:1014B00018D04907002957DAE168890889000143F3
:1014C000E160FFF7C1FE69680746022912D00329CF
:1014D0001CD0002926D032E021688903EAE7216880
:1014E0008905E7E78901E5E7FFF7AEFEC11B334851
:1014F000814222D8E0680007800F0228F4D123E05F
:10150000FFF7A2FEC11B2D48814216D8E0680007F4
:10151000800F0328F4D117E0FFF796FEC11B274880
:1015200081420AD8E0680007800FF5D10CE0FFF790
:101530008BFEC11B2148814201D90320F8BDE06820
:101540000007800F0128F2D11A480168C907C90FA6
:10155000B1420BD30168490849003143016000687A
:10156000C007C00FB04201D00120F8BD2878400765
:1015700006D5E068072109028843E9680843E0606E
:101580002878000707D5E0680721C9028843296940
:10159000C9000843E06000F03DF8E168084A090628
:1015A000090F515CC840074908600020FFF76AFE38
:1015B0000020F8BD00200240001002408813000007
:1015C0003C3300080000002001480068704700001C
:1015D00000000020044805490068C968044A49051C
:1015E000490F515CC84070470000002000100240C5
:1015F00055330008044805490068C968044A89044D
:10160000490F515CC84070470000002000100240A4
:101610005533000810B5194A5068D4680004410FCA
:101620000C200440164806D0164B042C06D0082C7B
:1016300009D00C2C09D0491C884010BD1068C00688
:1016400001D5114810BD184610BDD068D168800280
:101650000E4B000F185C0902D368890F0124240483
:10166000491C234207D11268D20604D5064A5043CA
:10167000FEF73EFD10BD034AF9E7000000100240EE
:10168000008000000024F40000093D004C330008F5
:10169000FEB504460078EC4DC0074DD0E868000761
:1016A000800F022807D0E8680007800F032809D1BF
:1016B000E868C00306D5286880033DD56068002827
:1016C00075D039E0012062680004824203D12968A4
:1016D0000143296014E0052301211B0489049A4277
:1016E0002A6805D182432A602A680A432A60EEE705
:1016F00082432A602A680240009228688843286052
:10170000606800280CD0FFF79FFD064604E0FFF755
:101710009BFD801B64287DD828688003F7D50BE0EB
:10172000FFF792FD064604E0FFF78EFD801B64285C
:10173000F1D828688003F7D42078800740D5E8687E
:101740001F270007800F3F02012807D0E868000725
:10175000800F032809D1E868C00306D42868400731
:1017600017D5E068012822D113E0E168092000299B
:1017700016D02A6882430A432A60FFF765FD0646B1
:1017800004E0FFF761FD801B0228C4D828684007E9
:10179000F7D568682169B8430902084368600FE01B
:1017A000296881432960FFF74FFD064605E09DE06B
:1017B000FFF74AFD801B0228ADD828684007F7D400
:1017C0002078A24FC00656D5E8680007800F09D0E0
:1017D000A0690028286840D038432860FFF734FD0E
:1017E000064628E02868800502D5A06900287DD03B
:1017F0006868072149038843216A0843686068686C
:10180000217F0002000A090608436860FFF702FF13
:10181000E96800E09DE009068D4A090F515CC84067
:101820008C4908600020FFF72DFD24E0FFF70CFD38
:10183000801B0228A9D828688005F7D56868072189
:1018400049038843216A084368606868217F000271
:10185000000A0906084368600DE0B8432860FFF7F6
:10186000F3FC064604E0FFF7EFFC801B022870D86B
:1018700028688005F7D42078774E000724D5606962
:101880000028306910D0012108433061FFF7DCFCEB
:10189000009005E0FFF7D8FC0099401A022858D8BC
:1018A00030698007F6D50FE0400840003061FFF74F
:1018B000CBFC009005E0FFF7C7FC0099401A022816
:1018C00047D830698007F6D42078400771D50020CA
:1018D00002900190A86BC00006D4A86B01210907F3
:1018E0000843A863012002905C4800E0A9E000687A
:1018F000C00513D4594801683943016001200190A3
:10190000FFF7A2FC009005E0FFF79EFC0099401A4B
:1019100064281ED851480068C005F5D5A068B842B3
:1019200002D1306938430CE001218902002803D03C
:101930000522120290420DD03069B84330613069FF
:1019400088433061A068002816D0FFF77DFC009026
:101950000EE06FE03069B8433061306908433061B0
:10196000DFE7FFF771FC0099411A3D48814261D8D9
:1019700030698005F5D50DE0FFF766FC009006E0C4
:10198000FFF762FC0099411A3548814252D830690C
:101990008005F5D40198002803D030480168B94388
:1019A00001600298002804D0A96B01200007814340
:1019B000A963606A002842D0E9680907890F0329F2
:1019C0003FD0012636060228286805D0B04328609B
:1019D000FFF73AFC04462FE0B0432860FFF734FCE1
:1019E000074604E0FFF730FCC01B022822D8286815
:1019F0008001F7D4216BE06AEA680843A16AFD23FD
:101A00001B049A4311430843E86028683043286068
:101A1000FFF71AFC044604E0FFF716FC001B02283F
:101A200008D828688001F7D509E0FFF70DFC001BF6
:101A3000022801D90320FEBD28688001F5D40020CA
:101A4000FEBD0120FEBD00000010024000010000AC
:101A50003C330008000000204010024000700040AD
:101A600088130000042204490428086902D0904326
:101A7000086170471043FBE700E000E0704700009A
:101A8000094910B5401E884201D9012010BD074CFC
:101A900060610321081F00F07FFC0020A061072087
:101AA0002061002010BD0000FFFFFF0000E000E00B
:101AB00010B5FFF7E3FF10BD70B502462032137D6D
:101AC000012B1BD00123137502245475046865682B
:101AD0007026B5436560046865680E6835436560C7
:101AE0000468A5688026B543A560006884684968D5
:101AF0000C43846053750020107570BD022070BDCA
:101B000070B5040005D025462035687D002802D038
:101B100006E0012070BD00202875204600F00AF87C
:101B200002206875211D206800F02EFE01206875D6
:101B3000002070BD10B50068084988420CD10848E3
:101B4000816B102211438163002211461120FFF79F
:101B5000D3FB1120FFF7C6FB10BD000000100040B2
:101B6000001002400268D36801210B43D360006873
:101B700002680A43026000207047704770B504464F
:101B8000006801690025C9438907002915DBC16880
:101B9000C943890711D4E91E01610120207520681D
:101BA00080698007204602D0FFF7E7FF04E000F0DD
:101BB00078F8204600F006F9257520680169C943C8
:101BC000490717D4C168C943490713D40421C9433D
:101BD000016102202075206880698005800F204601
:101BE00002D0FFF7CAFF04E000F05BF8204600F0E7
:101BF000E9F8257520680169C943090716D4C16849
:101C0000C943090712D40821C94301610420207582
:101C10002068C0698007204602D0FFF7AEFF04E0CD
:101C200000F03FF8204600F0CDF8257520680169E6
:101C3000C943C90617D4C168C943C90613D41021C2
:101C4000C9430161082020752068C0698005800FA4
:101C5000204602D0FFF791FF04E000F022F8204672
:101C600000F0B0F8257520680169C943C90708D19B
:101C7000C168C943C90704D1891E0161204600F02B
:101C8000AFF820680169C943490609D4C168C9434E
:101C9000490605D44021C9430161204600F0C2F83D
:101CA00070BD7047F8B5064604462036307D0D46B7
:101CB00001280DD001203075022070750427002AFC
:101CC00008D0042A16D0082A2AD00C2A4DD137E091
:101CD0000220F8BD206800F092FD2068816908228A
:101CE0001143816120688169B943816120688169FC
:101CF000EA6812E0206800F09AFD206882690121FC
:101D0000C9020A43826120688169012292029143DB
:101D1000816120688169EA6812021143816124E0CF
:101D2000206800F09DFD2068C26908210A43C26155
:101D30002068C169B943C1612068C169EA6812E0DD
:101D4000206800F0A8FD2068C1690122D202114379
:101D5000C1612068C269012189028A43C261206889
:101D6000C169EA6812021143C16101207075002047
:101D70003075F8BD70B5040005D025462035687D66
:101D8000002802D006E0012070BD00202875204602
:101D900000F00AF802206875211D206800F0F4FCAC
:101DA00001206875002070BD006801218907884204
:101DB00004D10348816B0122114381637047000005
:101DC00000100240704710B504460068012200F080
:101DD0000BFD20680168012211430160002010BD45
:101DE00030B50E4800228188491C8BB28380C1889F
:101DF000491C8CB2C4800189491C8DB20121058126
:101E00000A2D01D302810170642C01D3C28041707C
:101E1000034CA34201D38280817030BD08000020B2
:101E200010270000704770B5040005D025466035C6
:101E3000687A002802D006E0012070BD00202872D8
:101E4000204600F025F824206872206801684908BF
:101E500049000160204600F05FFF606A002802D060
:101E6000204600F0C7FE206841680922D202914353
:101E70004160206881682A2291438160206801685E
:101E8000012211430160204600F01AFF70BD0000DE
:101E9000F0B50668104F05201049022201230324E3
:101EA0000425000785B0BE4205D14E6B57033E4363
:101EB0004E63610208E00A4FBE420AD18E6B0127D1
:101EC0007F043E438E630C216E463EC66946FFF793
:101ED000EDF805B0F0BD00000038014000100240F0
:101EE00000440040FFB5064604466036707A81B073
:101EF0000D46202844D1002D1AD0002A18D0307A5F
:101F000001283DD0012030720020E066212070724F
:101F1000274640373A827A82788A0022401E7882A9
:101F200080212046049B01F047F800281AD102E0E6
:101F3000012005B0F0BD0120A1680003814202D15B
:101F40002069002810D02168287888626D1C788A62
:101F50000028E1D1002240212046049B01F02CF80A
:101F6000002808D00320E4E728882168C005C00DB8
:101F70008862AD1CEBE72020707200203072D8E739
:101F80000220D6E770B5040004D0607C002500284C
:101F900002D005E0012070BD2574204600F01EF837
:101FA000207C012817D00121217402206074A268CE
:101FB00060681043226853685B0A5B0218435060F4
:101FC00020680268E368D209D2011A430260617492
:101FD0002574002070BD022070BD00000068044917
:101FE000884204D10348816BC21411438163704756
:101FF000002C004000100240FEE71420401E0006A6
:10200000000EFBD1704700001148016882011143A6
:10201000016001680202114301608168C20111433D
:1020200081608168420211438160C1680322120409
:102030009143C160C16892009143C1604169FF2230
:1020400001321143416141695200114341617047BE
:102050000004005030B50246012012494002886158
:10206000086803239B0498430860002301252C0281
:102070008C61FFF7C2FF10784000107000F046FA44
:10208000002802D01078284310708C62FFF7B5FF4B
:102090005B1CDBB2082BEBD30868012292041043CF
:1020A000086030BD00040050FFB51E460F460546CF
:1020B000012400F071F8284600F040F8002816D0FE
:1020C000384600F03BF8002811D000F065F82846AB
:1020D0000121084300F032F8002808D0F1B202983C
:1020E00000F007F800F06AF8204604B0F0BD0024C4
:1020F000F8E7F0B500240D4606464F1E0BE03019F8
:10210000FFF7A8FFBC4202D100F036F801E000F072
:1021100005F8641CE4B2AC42F1D3F0BD00B5012077
:1021200005494002886242108A61FFF766FF8A62B1
:10213000FFF763FF00BD00000004005030B501252B
:1021400000216D020B4A03466C10180601D59561FB
:1021500000E095629461FFF750FF94625806030E09
:10216000FFF74BFF491CC9B20829EED300F038F83D
:1021700030BD00000004005000B5012005494002B8
:10218000886142108A61FFF738FF8A62FFF735FFE6
:1021900000BD00000004005000B5012206495202B3
:1021A0008A6153108B61FFF728FF8A62FFF725FFD2
:1021B0008B62FFF722FF00BD0004005000B5012232
:1021C000064952028A6253108B62FFF716FF8B6139
:1021D000FFF713FF8A61FFF710FF00BD00040050F6
:1021E00000B501200E494002886142108A610868EA
:1021F00003239B0498430860FFF7FFFE00F086F975
:1022000003468A6208680122920410430860FFF7BF
:10221000F4FE002B01D0002000BD012000BD000015
:1022200000040050FFB51E46174604460025FFF780
:10223000B3FF2046FFF782FF002810D00198FFF778
:102240007DFF00280BD0002406E0385DFFF776FF05
:10225000002804D0641CE4B2B442F6D30125FFF791
:10226000ADFF284604B0F0BD00B585B001204003A5
:102270000090094801900120029069460748FEF746
:1022800015FF002203210720FFF736F80720FFF78C
:1022900029F805B000BD0000000031100008005012
:1022A000F8B51A4C0125207800268107002913DA99
:1022B000410711D5F92108402070E680A078002858
:1022C00022D0134FA670796800208847B968002093
:1022D0008847F968002088470E48017800290BD00C
:1022E00006706078002802D0E088401CE080A0786A
:1022F000002801D000F014F86078002803D0E088AE
:10230000C82800D3E570F8BDA570E5E724000020DB
:10231000140000200900002000B500F045FC00BDBD
:1023200010B51B4C002023792146FF220831002BD9
:102330000BD0012B14D0022B20D16379FF2B23D299
:102340000B704870D01A887011E06379FF2B03D2AC
:10235000D21A0A704B70F6E76071E060012011E05C
:102360006379FF2B0BD20870D01A48708B70084825
:10237000083000F01BF96079401C607110BD60717D
:10238000E0600220207110BD6071E060FAE700009B
:1023900024000020704700008307FF22DB0E9A40D4
:1023A0008907090E994000280BDA0007000F08384A
:1023B000830808489B001818C36993430B43C36103
:1023C0007047830804489B001B1818689043084313
:1023D0001860704700ED00E000E400E030B599B00F
:1023E00003208002022500240E9010940F950EA960
:1023F000129511942148FEF759FEA8030E9005206E
:10240000129010940F9511940EA90007FEF74EFE3E
:10241000680700904015049064200390FF209030DE
:10242000019002946846FFF7A5FC179417A9684627
:102430001894FFF741FB6020139014941594002228
:1024400013A916946846FFF72DFC082213A96846C5
:10245000FFF728FC0C2213A96846FFF723FC002194
:102460006846FFF7B0FC08216846FFF7ACFC0C217A
:102470006846FFF7A8FC19B030BD0000000400500A
:102480007047052000074169082291434161FEE73A
:10249000052000074169082211434161704710B5CA
:1024A0000320FEF79BF900281AD10220FEF796F9C7
:1024B000002815D10120FEF791F9002810D1FEF770
:1024C0008DF900280CD1062000F02AF8002807D149
:1024D000052000F025F8002802D1042000F020F8A3
:1024E00010BD10B504462F2807D9002000F0F2FADD
:1024F000072000F035FB002010BD6007400F00F002
:10250000E9FAE00800F02CFB012010BD0348006947
:10251000800501D50120704700207047000400505D
:1025200038B50446002069460880201F032801D3DF
:10253000FF2038BD2046FFF7EFFE6A460021124813
:10254000FEF708F9684600880F2109034843C00BCD
:102550000A214843C821FDF7CBFD052801D2002000
:1025600038BD062C04D0052C05D0042C05D008E07D
:102570001421484304E0450003E00521FDF7B8FDC0
:102580000546284638BD0000340000207047000092
:10259000642801D8014908607047000040000040ED
:1025A000642802D801218907C863704770B5064DB9
:1025B0000446696800788847A96860788847E968B0
:1025C000A078884770BD000014000020642802D85D
:1025D000012189074863704710B5002802D0FEF733
:1025E000E1F810BDFEF7D9F810BD10B5172803D8D3
:1025F000172901D8012A01D9012010BD884201D133
:10260000022010BD18235A4310185118C0B2CCB282
:10261000A04202D9014620460C4600F079FD204632
:10262000FFF75FFF002010BD10B5FEF7B6F83020B1
:1026300000F06EFD3020FFF754FF054C302162683A
:1026400004489047A26830210248904710BD00001E
:102650004C0000203400002070B50B46172803D82A
:10266000172B01D8012A01D9012070BD984201D150
:10267000022070BD1101D2008A181018C1B2D01802
:10268000C4B2A14202D9084621460446044D054879
:102690006A689047AA68214602489047002070BDAA
:1026A0004C0000203400002010B5FEF7D3FDFFF7EA
:1026B000FFF910BD30B51A489BB001680322D20261
:1026C0009143C21489180160500101240025019032
:1026D000099500946846FEF7DBFF0F200D9002205D
:1026E0000E900F951095002111950DA8FEF7B8FEDC
:1026F00012A813951294FEF703FEFEF765FF7D21E5
:10270000C900FDF7F5FCFFF7BBF90420FFF7AAF9B4
:1027100000221146501EFEF7EFFD1BB030BD000039
:102720000070004010480168821511430160C168C3
:102730000E4A1140C16001680D4A11400160816874
:1027400049084900816001680122920491430160B7
:10275000C168FD2212049143C16000210161054955
:10276000C003886070470000001002400C40FF88E2
:10277000F6FFF6FE00ED00E010B50248FFF7FEF9A7
:1027800010BD000070000020F0B502680124A4070D
:10279000124D134E134FA04205D0A84203D0B042B1
:1027A00001D0B84204D11346702293434A681A43B9
:1027B000A04205D0A84203D0B04201D0B84204D113
:1027C00003231B029A43CB681A4302608A68C262E1
:1027D0000968816201214161F0BD000000040040F0
:1027E000000801400014014010B50123046A8B4029
:1027F0009C430462036A8A401343036210BD30B5F0
:10280000026A520852000262026A456883697024B3
:10281000A3439C080B68A40023430224A2438C68B2
:1028200045601443836149684163046230BD30B53B
:10283000026A10239A430262036A4568826973241C
:102840002402A2430C6824021443202293438A6882
:10285000456012011A43846149688163026230BD98
:1028600030B5026AFF2301339A430262026A456867
:10287000C3697024A3439C080B68A400234301246C
:102880006402A2438C68456024021443C361496812
:10289000C163046230BD30B5026A01231B039A4351
:1028A0000262036A4568C26973242402A2430C6869
:1028B000240214430122520393438A6845601203A1
:1028C0001A43C46149680164026230BD70B50D4CA1
:1028D0000025206880470122042163680020984772
:1028E00001220421A36800209847E168012088475D
:1028F0002069804703460122294603A000F0CEFB51
:1029000070BD00005C00002043482825642C202571
:102910006429202D2D205265733A202564204F68AC
:102920006D0D0A0003480178002901D000210170D3
:10293000704700000800002010B504488178002985
:1029400003D000218170FFF7C1FF10BD08000020F7
:1029500070B5104C01232288042551081A43022621
:102960004900030000F000FC060406080B0F120EDD
:10297000B14302E0B14303E03143A94301E03143F5
:102980002943218070BDB243AA4301E0B2432A43E8
:10299000228070BD4800002070B5104C08232288AA
:1029A0001025114699431A432026030000F0DCFB52
:1029B000060406080B0F120EA94302E0A94303E028
:1029C0002943B14301E029433143218070BDAA432B
:1029D000B24301E0AA433243228070BD4800002088
:1029E00070B5134C402321889E000A469A43194330
:1029F0008025030000F0B8FB080507090C1012142D
:102A0000170FAA4302E0AA4303E02A43B24301E0BE
:102A10002A433243228070BDA94302E0A94303E068
:102A20002943B14301E029433143218070BD0000B7
:102A30004800002070B5134C01235B0221885D0023
:102A40000A469E009A431943030000F08DFB0805D7
:102A500007090C101214170FAA4302E0AA4303E05F
:102A60002A43B24301E02A433243228070BDA94386
:102A700002E0A94303E02943B14301E02943314384
:102A8000218070BD4800002030B5802510494022CB
:102A90002024030000F068FB080507090B0D101344
:102AA00017168D6206E08D6207E08D6208E08D6288
:102AB0000AE08D618A6204E08D618A6205E08D61C1
:102AC0008A618C6230BD8D618A618C6130BD00008D
:102AD0000004005030B50422022408250F490300E9
:102AE00000F042FB080507090B0D101317168D6245
:102AF00006E08D6207E08D6208E08D620AE08D617C
:102B00008A6204E08D618A6205E08D618A618C626F
:102B100030BD8D618A618C6130BD000000080050BD
:102B200030B50425022201240C49030000F01CFBEF
:102B3000060406080B0E12118D6208E08D620AE091
:102B40008D628A6104E08D628A6105E08D618A622E
:102B50008C6230BD8D618A628C6130BD0004005092
:102B600070B508260E49102240240E4D030000F0D7
:102B7000FBFA060406080B0E12118E6208E08E6244
:102B80000AE08E628A6104E08E628A6105E08E61ED
:102B90008A62AC6270BD8E618A62AC6170BD0000F9
:102BA000000400500008005030B50125AD026A0055
:102BB0000F495400030000F0D7FA080507090B0D70
:102BC000101317168D6206E08D6207E08D6208E033
:102BD0008D620AE08D618A6204E08D618A6205E09F
:102BE0008D618A618C6230BD8D618A618C6130BD7E
:102BF0000008005010B5818CC90707D001684A68E9
:102C000001235B049A43836A1A434A60818C8907D3
:102C100007D501684A6801231B049A43C36A1A4313
:102C20004A60818C490707D501684A6801239B04E3
:102C30009A43036B1A434A60818C090707D50168E0
:102C40004A680123DB039A43436B1A434A60818C31
:102C5000C90607D50268916801231B039943836B5A
:102C600019439160818C890607D501688A68012320
:102C70005B039A43C36B1A438A60818C490612D561
:102C800003685A6801210905046C8A4322435A608B
:102C9000026C8A4207D10268516803235B0599439D
:102CA000436C19435160818C090607D501684A6855
:102CB0000123DB04806C9A4302434A6010BD00008C
:102CC00070B5044600680068124D000708D5012160
:102CD0002B4600224905204600F06EF900280CD151
:102CE0002068006840070AD501212B46002289058B
:102CF000204600F061F9002801D0032070BD0021BA
:102D0000204660300172E16620214172817200200C
:102D100070BD0000F0550000F8B504462669A368B0
:102D2000E7693343666900203E4325683343964A8A
:102D30002E680146954F3E401E432E6025686B6805
:102D400003263603B343E66833436B602568A36903
:102D5000954201D0266A3343AE680B273F02BE433B
:102D60001E43AE608A4E25688A4BB5420CD1DB68A3
:102D70009B079B0F06D0012B42D0022B3ED0032B8A
:102D800020D11EE001201DE0834EB5420AD1DB6850
:102D90000C26334016D0042B32D0082B2ED00C2B0F
:102DA00010D10EE095420DD1DE6803239B021E4038
:102DB00008D001239B02F61A22D0F61A1ED09E429A
:102DC00000D10820734F403F95427DD10026002856
:102DD00018D0022832D0042858D0082855D1646869
:102DE0002046FDF7EFFA07460091F1076008084317
:102DF0007108FDF7F5FA0022684B3DE00220E1E79B
:102E00000420DFE767683846FDF7DCFA05460091E5
:102E1000F107780808437108FDF7E2FA06460F4605
:102E2000FEF7D8FBFDF7CEFA0822FDF7B5FA3246D9
:102E30003B46FDF787F92A46009B42E03868646804
:102E4000C00620460CD5FDF7BDFA07460091F107F4
:102E5000600808437108FDF7C3FA0022504B0BE0ED
:102E6000FDF7B0FA07460091F107600808437108C2
:102E7000FDF7B6FA00224B4BFDF764F93A46009B8A
:102E8000FDF712FAFDF7BAFAE860F8BD6768384650
:102E9000FDF798FA05460091F10778080843710894
:102EA000FDF79EFA06460F46FEF7B4FBFDF78AFAD9
:102EB0000822FDF771FA32463B46FDF743F92A46F0
:102EC000009BFDF7F1F900E004E0FDF797FA2168B7
:102ED000C860F8BD0122E369D20393422CD10300FC
:102EE00000F042F90906090C191F191919251900D2
:102EF000FEF770FB17E0FEF77DFB14E038686168B1
:102F0000C00602D54808284A01E0284A4808801827
:102F1000FDF7EEF881B20A0912010807400F1043CD
:102F2000D5E7FEF777FB616840004A08EFE7616884
:102F3000012248081204EAE7030000F015F9090726
:102F40000A0D061A060606220600C2E7FEF742FB35
:102F500011E0FEF74FFB0EE038686168C00602D54D
:102F60004808134A01E0134A48088018FDF7C0F8E2
:102F70008AE7FEF74FFB61684A088018FDF7B8F84A
:102F8000A5E761684808F0E700480040F369FFEFF3
:102F90000038014040100240004400400000604101
:102FA0008084CE418084EE4100127A000048E8011E
:102FB00000093D000024F400F8B51E4615460F46F2
:102FC0000446FEF741F92946254660350090002960
:102FD0001AD043E0701C17D0002E05D0FEF734F94C
:102FE0000099401AB0420FD92068026880218A43B4
:102FF000026021680A68202082430A6021680B6809
:10300000C20093430B601EE02068C16938468843C4
:10301000E0D128E0701C21D0002E05D0FEF714F975
:103020000099401AB04219D9206801688022914362
:10303000016021680A68202082430A6021680A68CA
:10304000C3009A430A6021688A68520852008A6065
:103050006872A872002028720320F8BD2068C16938
:1030600038468843D6D00020F8BD000010B50A4885
:1030700008490160E1214902416000218160C1608D
:1030800001618161C1610C22016242614162FEF70E
:10309000CAFE10BD003801401C0100200FB470B5FD
:1030A00005AC1A4D002608E0252916D02970049891
:1030B000761C401CB6B26D1C04900498017800295F
:1030C000F2D11249FF230846F53332467038FEF735
:1030D00009FF70BC08BC04B01847401C049001787C
:1030E000642902D078290DD104E001CC294600F0F2
:1030F00071F803E001CC294600F094F82D1830183F
:1031000086B20498401C0490D7E700008C01002090
:1031100010B504462F2807D90020FFF7B5FC07207B
:10312000FFF7FEFC002010BD6007400FFFF7ACFC6E
:10313000E008FFF7F5FC012010BD2021020C01D0B2
:1031400010211046020A01D010460839020901D0A8
:103150001046091F820801D01046891E420801D07E
:10316000881E7047081A704730B47446641E25786C
:10317000641CAB4200D21D46635D5B00E31830BCAB
:10318000184702E008C8121F08C1002AFAD1704788
:103190007047002001E001C1121F002AFBD17047D7
:1031A00010B5064804490068FCF7A2FF00E0401E85
:1031B0000004000CFBD110BDB80B00000000002083
:1031C00010B5044603E0FFF7EBFF641EA4B2002C29
:1031D000F9D110BDFEB500260D46002801DA4042A7
:1031E000012600246F460A21FCF798FF303139553B
:1031F000641CE4B20028F6DC002E02D02D202870DA
:103200006D1C002006E0211AC9192039C97F2954F4
:10321000401CC0B2A042F6D3002E01D0641CE4B220
:103220002046FEBD1CB5044600206A4623071B0F3E
:103230001354092B01D9573300E030331354401C89
:103240002411C0B2002CF1DC002306E0C41AA4183B
:10325000203CE47FCC545B1CDBB28342F6D31CBD24
:103260001CB5FDF7FFFFFFF725FAFDF72BFCFFF775
:103270000FF92848006880470A20FFF7A7F90A20BD
:10328000FFF78EF90A20FFF783F9FFF7EFFE2248D8
:1032900000688047214801681F4888472048006827
:1032A000804720492048002412C04021016041602D
:1032B0000838FEF767FE1C4D1C48383D28601D4845
:1032C0001B490068FCF714FF401EAC606860632077
:1032D000E8602846FEF714FC0094694628460194ED
:1032E000FEF7EAFB2846FEF73DFCFEF7BDFFFDF7C3
:1032F0000DFB114CFEF7D4FFFFF714FBFFF71CFB8F
:1033000020780128F6D17D20C000FFF759FFFFF794
:10331000B8F8000014000020340000204C00002009
:1033200040000020002C0040A800002000100040B9
:1033300040420F0000000020270000200000000095
:103340000000000001020304060708090304060840
:103350000C101820300000000001020304000000DF
:103360008033000800000020700000008231000857
:10337000F0330008700000202006000092310008A1
:1033800080841E000000000000000000000000001B
:1033900000000000DD230008CD250008A12500085D
:1033A000912500080000000000000000000000005F
:1033B0000000000009200008A920000825220008BC
:1033C000C1060008ED0B000800000000B10700086E
:1033D000450A0008750A0008192300082926000874
:1033E000EB25000859260008D92500089F2400086D
:04000005080000C12E
:00000001FF
